:020000040800F2
:1030000088360020D93F0108978300089B83000879
:1030100000000000000000000000000000000000B0
:10302000000000000000000000000000A78300086E
:103030000000000000000000AB830008AF83000820
:10304000AFCA00082BD000080FD600084BE10008DB
:103050009FE100083BE6000817E90008BF210108CE
:1030600017EB0008D3F50008131201080717010831
:10307000559100080B2001086B3E0108F32101085F
:1030800019220108773E010800000000D141010823
:10309000D3410108D5410108D7410108D9410108B0
:1030A000DB410108DD410108DF410108A1140108ED
:1030B00095150108E1410108E34101080000000005
:1030C0001CB50400744875487548764876487748BA
:1030D000774878481F2001900A200090764B712293
:1030E0007649200002F03EFD0023722221002000DC
:1030F0003C3002F075FD02227149724802F08EFDEB
:103100000721200002F0AAFD1421200002F0A6FDF4
:1031100013BD10B50400200002F044FD10BD70B5D1
:1031200082B004000D0001206946087000210F20C4
:1031300002F0D4FD06003100634802F01FFE624831
:103140000068C068007AC106C90E5F4802F056FFE9
:10315000002002F0BDFC052003F0A4FB5B490860E1
:103160006946022003F0B8FB00205949087002F0BC
:10317000B9FB5848A060042076BDF0B583B00400C8
:103180000D0000942888012806D0022873D0272833
:1031900008D0722818D07AE00821009800F04CFE80
:1031A000012077E02E00B089082804D10121009881
:1031B00000F042FE06E0B089012803D10A21009800
:1031C00002F042FB012065E0042003F055FB0028DB
:1031D00030D0082003F050FB00282BD0092003F04A
:1031E0004BFB002826D00A2003F046FB002821D004
:1031F000042003F057FBAA490860A948006802F0C0
:103200003CFB02F05DF834200190A5480668A54F0C
:10321000019A3100380003F0D1FB200001F056F88C
:10322000FA21C900009802F00FFB9F4800680228AD
:1032300015DA05E00A21009802F006FB012029E0DA
:103240009A489949096809225143401803F066FCDD
:1032500095480068401C9449086001201AE001204C
:1032600002F036FC00220521200003F058FD9048B2
:10327000A06004200EE0200001F08EFF00208A49AB
:1032800008608C48006801F0FEFB012002E08A48DB
:10329000A0600020FEBD000000BC010880BC010849
:1032A00000BD010880BD010800BE010810BE010874
:1032B00020BE010830BE0108183000201F31000870
:1032C000BC31002034310020AC31002038320020E5
:1032D0002C2F00207B310008F8B504000D0000946D
:1032E0002888401E12D0401E00D1A9E0401F37D0D0
:1032F000653800D18FE0801F4AD07E38012800D881
:1033000089E0C01E012800D885E0C4E000206B4998
:103310000860002002F0DCFB69480068C068007AA1
:10332000C106C90E664802F0ADFE0122052120004B
:1033300003F0F5FC634803F051FEFA2109010098FF
:1033400002F082FA02F0DDFB5F480078002805D029
:1033500000205D490870200002F0F6FB01209DE08E
:103360002E005A480021405E002804D05748002112
:10337000405E01280AD1B068062807D13221022018
:1033800002F01DFB5248A060042087E0012085E088
:10339000032003F087FA077804F021FA0600FFB251
:1033A000002F10D04B480079002808D14748002151
:1033B000405E012818D03E48A06004206EE0002046
:1033C0004449086010E04348007900280CD0414887
:1033D0000068401C3F4908603E4800683E498842FA
:1033E00002D300203B49087138480021405E012883
:1033F00004D036480021405E002806D1F6B2002EE7
:1034000003D02B48A060042048E00A21009802F075
:103410001BFA012042E02D480021405E002804D024
:103420002A480021405E012808D12A002B492000AB
:1034300004F03EFA1E48A06004202FE001202DE099
:1034400000201949086000983C3004F063FA01F04C
:1034500037FF200001F0A0FE1648006801F013FBC2
:1034600002F054FB00220521200003F058FC01204B
:1034700002F02EFB12480068C068007AC106C90E2F
:103480000F4802F0BBFD00201249086000201149DE
:103490000871012002E00848A0600020F2BD000091
:1034A000343200206C2F00203C320020003F010805
:1034B000E1340008801C0020B76900082432002095
:1034C000AC310020F02E0020823200206C3200202F
:1034D0008D3B0008B431002021030000343100206E
:1034E000F2B586B0040003940026022003F0DAF956
:1034F000060006980088012820D0022800D122E387
:10350000072800D1C2E01F282CD06C2800D1A9E2E6
:10351000712800D145E1F02800D123E2F12800D143
:1035200044E2F32800D169E2F42800D176E2FA28D7
:1035300023D0FC2836D0FE286ED00DE30020C949E8
:1035400008600020C84908600A21039802F030FB97
:10355000C649200004F0B6F902F03FFA01F00CFD74
:103560000120FCE2C2480068C068007AC106C90EAA
:10357000BF4802F043FD0120F1E2FB2200210820B8
:1035800004F0D8F905000120CF4908702900052072
:1035900004F096FB0021002002F011FACB48A06055
:1035A0000420DCE2FD220021142004F0C3F9050010
:1035B0000A2069460870684600780490002002904E
:1035C0002F000937029A0499380004F013FCC04810
:1035D0000190019804F038FC69460978814202D2D2
:1035E0006846007802E0019804F02EFC2872287AE0
:1035F0000490019802902F000937049A029938002C
:1036000003F0DCF92900052004F05AFB290004200E
:1036100004F056FB0120A2E2FF2200211C2004F04E
:1036200089F9050010206946087068460078049002
:10363000002002902F000937029A0499380004F004
:10364000D9FBA4480190019804F0FEFB6946097873
:10365000814202D26846007802E0019804F0F4FB4F
:103660002872287A0490019802902F000937049A52
:103670000299380003F0A2F92900052004F020FB8C
:103680002900042004F01CFB012068E2069D0020B4
:10369000744908600020744908600020C04908701F
:1036A0006868232808D1BF4803F0B6FC02F06EF822
:1036B000BD48A060042052E268682E2817D1A8688F
:1036C000012814D13078002808D003F057FA0020E0
:1036D00030703100022003F0FFF85AE00120307012
:1036E0003100022003F0F8F803F056FA51E0686860
:1036F0002E284ED06868302816D101203070310055
:10370000022003F0E9F8002004F0E1FB0120D04999
:103710000870D04803F002FAFA20C000CE490860D1
:103720000120CE49087034E068682F282BD1012091
:1037300030703100022003F0CFF8C948007800282B
:1037400010D1012002F0E7F90120C1490870C148F9
:1037500003F0E4F9FA20C000BF4908600120BF4926
:10376000087016E0002002F0D6F90120B849087070
:10377000C54803F0D3F9FA20C000B749086001201A
:10378000B649087005E0012030703100022003F0D6
:10379000A3F801F0E7FB0A21039802F009FA0120DF
:1037A000DDE130480068401C2E49086000F0AAFDA9
:1037B00001F0B8FCB5480021405E002804D12A4839
:1037C0000068B34988420AD2B0480021405E01280F
:1037D00013D125480068FA21890088420DD301F0F1
:1037E000C1FBAC4803F09AF9FA21C900002002F0AD
:1037F000E6F83648A0600420B1E197480068002848
:1038000004D0954800680A3893490860A24800210E
:10381000415EFA20800048430A2104F003FC11496C
:103820000968814204D39C480021405E002803D1EE
:10383000894800680A2861D188480078002805D0A6
:1038400000208649087003F0A7F957E0C548002119
:10385000405E01280ED103F091F900200149086073
:103860004CE000BF20320020243200203431002000
:10387000AC310020BB480021405E02282CD1BA4860
:103880000068401CB8490860B7480068C82835D3AC
:103890000020B5490860B548B54909680922514377
:1038A000401802F0FDF8B2480068002803D101205A
:1038B000AF49086022E0AE48006801281ED1002010
:1038C000AB4908601AE000BF823200208D3B00083F
:1038D000F4400108A83F0108A2480021405E0028EA
:1038E0000CD12F480078A34909780143C9B20029B7
:1038F00004D101F0FCF80120294908709E480068B5
:1039000000280BD09C480068401E9B4908609A48DC
:103910000068002802D1994803F000F9984800682F
:1039200000280BD096480068401E954908609448CE
:103930000068002802D1934803F0F0F8924800880C
:10394000401C91490880904800880B2804DB002027
:103950008D49088003F05EFF0A21039802F028F9E0
:103960000120FCE0069D0020B74908600020B7490F
:10397000086000200A4908700120307031000220E0
:1039800002F0AAFF2900200001F083FB01F0EAFA0F
:1039900001F0F2FA00F0B6FC01F0F8FE0120DEE0E2
:1039A00080320020F02E0020593C0008069DA868B7
:1039B000042816D1A86802F075FF0700AB89EA89D0
:1039C000A968009101920293A889022104F02AFBC0
:1039D000022148433818029B019A009901F073FEB6
:1039E0000AE0A86802F05EFF0700AB89EA89A968CF
:1039F000A889381801F067FE0120B0E0069D287AFA
:103A000001F05FFC01F0C2FE0120307031000220A5
:103A100002F062FF8E48A0600420A0E0F5220021A1
:103A2000402003F087FF0500102001908948009096
:103A30002F000A37019A0099380002F0BFFF1020CA
:103A400028812900052004F03BF9012087E000BF10
:103A50007F320020C81B002030320020813200203D
:103A60007E3200200027069DA8680069322815D103
:103A7000AA4803F0B3FAA94803F0CEFA01F086FE93
:103A8000A748A06004206AE0D41B00206C3200200C
:103A9000E0A501008C1B00206A32002029002000D4
:103AA00000F028FA002805D12900200000F0D2FA01
:103AB000002803D001F06AFE012050E02900200018
:103AC00000F086FA002803D001F060FE012046E0F5
:103AD0002869012802D0286903282CD1A868006928
:103AE00001F03CF807003900C9B2280000F054FD8D
:103AF0003A00D2B2A968200001F01AF8A86800F0D4
:103B0000C2FFE868042802D0E868052801D1012036
:103B100025E0FFB202237B439BB2022204218C46A4
:103B20009A480168FFB2022078430818614601F004
:103B3000CAFD01F02BFE012030703100022002F09E
:103B4000CBFE01200BE0002009490860200028304E
:103B500003F0E0FE012002E0B148A060002007B0C1
:103B6000F0BD00006E3200207C1C0020003F0108E8
:103B70003C32002083320020283200203C1A0020F2
:103B80002C320020601A00206832002070B504003A
:103B90000D0026002888401E0FD0401E42D0401F36
:103BA00015D0653815D0401F0FD0401E1CD07E3870
:103BB00001280ED9001F0CD03AE09A48416889B21A
:103BC000300001F041FE01203DE001203BE00120FA
:103BD00039E094480068022804D12A009249200064
:103BE00003F066FE01202EE08E480068002805D113
:103BF00002F0C4FF8D48A060042024E089480068DA
:103C0000012805D102F0BAFF8948A06004201AE01B
:103C100084480068022803D18648A060042012E08E
:103C2000012010E030003C3003F074FE01200AE077
:103C30007C480068032803D17E48A060042002E08D
:103C40007748A060002070BD203200202432002080
:103C5000913D0008B83F010870B504000D00260032
:103C60002888012804D0022839D072281BD051E0BE
:103C7000002001F02DFF00209A4908700122052143
:103C8000200003F04CF8FA21C900300001F0DCFDFF
:103C9000200000F0F9F9200000F018FB924802F033
:103CA0003DFF012039E091480068022813DA90486E
:103CB0008E49096809225143401802F02FFFFA216A
:103CC000C900300001F0C0FD88480068401C8749E9
:103CD0000860012021E05748A06004201DE000207A
:103CE000824908600D4803F097F9200001F054FA6A
:103CF000B548006800F0C7FE00220521200003F04F
:103D00000EF8012001F0E4FE30003C3003F002FE2A
:103D1000012002E04248A060002070BDF02E00208B
:103D2000593C000838B504000D002888012804D04B
:103D3000022819D007280AD024E0002001F0C8FE8C
:103D400001220521200002F0EAFF01201DE02900E8
:103D50008868012806D14868102803D19B48A060D4
:103D6000042012E0012010E0012001F0B1FE002249
:103D70000521200002F0D3FF2000283003F0CAFD07
:103D8000012002E02648A060002032BD343200202D
:103D900070B504000D0026002888401E12D0401E79
:103DA00033D0401F1AD0183821D04D3816D0401FBC
:103DB00012D0401E1BD07E3801280FD9C01E01280A
:103DC0000CD928E0A14802F0A9FEFA2189003000B0
:103DD00001F03AFD012021E001201FE02A001249F4
:103DE000200003F065FD1348A060042016E0984809
:103DF00003F012F9200001F0CFF97348006800F0D9
:103E000042FE0C48A060042008E030003C3003F083
:103E100081FD012002E00248A060002070BD00008A
:103E2000B7690008641C002034310020D932000832
:103E3000253D0008E134000870B505000C006A2239
:103E400000210C2003F076FD0600756034813000FF
:103E500003F068FF70BDF0B583B004000825A74EDD
:103E6000A74F2A003100380002F0A8FDA54864B22F
:103E70001421614340180A21405E0A281DDAA24835
:103E8000006864B202216143405E04F025F99F4955
:103E900004F03BF904F08EF900900191994864B266
:103EA00014216143401802690A21954804F09CF9E5
:103EB000200040B201F040FD13E09348006864B276
:103EC00002216143405E0A2104F0ACF803008D48F2
:103ED00064B214216143401802690A21884804F041
:103EE00083F9F7BD7E320020441B00203C320020C5
:103EF000003F0108F8B507000C000126A068006922
:103F0000192804D05AD31B2801D02AD356E0A06820
:103F1000006900F023FE05002900C9B2200000F06E
:103F20003BFB00F0EFF9A0680069192804D12800D4
:103F3000C0B200F089F903E02800C0B200F0A6F991
:103F4000EDB202236B439BB2022204218C466E48E1
:103F50000168EDB2022068430818614601F0B3FB26
:103F60002EE0A068006900F0F9FD05002900C9B243
:103F7000200000F011FB00F0C5F9B2480021405EBE
:103F8000002803D1C04802F0C9FD06E0280040B275
:103F9000FFF761FF5A4802F0C1FDEDB202236B4307
:103FA0009BB2022204218C4657480168EDB20220E0
:103FB00068430818614601F086FB01E00020060016
:103FC0003000C0B2F2BD0000801C00207B31000830
:103FD000F8B507000E0001240C25F068292804D04C
:103FE0000CD32B2807D003D308E00520050005E0FB
:103FF0000620050002E007200500FFE730690428DD
:104000000CD10C2D0AD040480168280002F064FC55
:10401000B94802F083FD2000C0B216E00C2D05D097
:104020003069072802D02000C0B20EE0B0680069F5
:104030000E38062805D8B0680169380000F0ECFE9B
:1040400001E0002004002000C0B2F2BD481A0020A8
:10405000F02E002070B506000C000125A068006954
:104060001D380B2802D9163806D008E0A06801696F
:10407000300000F01AFE04E02800C0B203E0002087
:1040800005002800C0B270BD38B50400002500202E
:1040900005006DB21A2D0DD21A486DB21421694374
:1040A00040180089184909686DB202226A43885293
:1040B0006D1CEEE714480168042002F00DFC8F49E6
:1040C000052002F009FC8E49062002F005FCAA49F1
:1040D000072002F001FCA949082002F0FDFBA849D5
:1040E000092002F0F9FBA7490A2002F0F5FB00F0D5
:1040F00043FF042001F055FC31BD0000B41A00203C
:104100006C310020303001083432002000002041A2
:1041100070B506000C009C48E4B21421614340587D
:104120000500292D0ADB2F2D08DA9748E4B2142167
:1041300061434158300000F027FD82E00E2D0ADB7C
:10414000152D08DA9048E4B214216143415830003B
:1041500000F062FE58E01B2D04D12000C0B200F038
:1041600095F851E0192D04D12000C0B200F06CF890
:104170004AE01A2D13D1B5480068E4B20221614328
:10418000405E002803D1404802F0C8FC3CE020001B
:1041900040B2FFF760FEBE4802F0C0FC34E0382DAC
:1041A0000CD1AA480068E4B202216143405E0A21B2
:1041B00003F038FF80B202F0D3FC25E0042D10D1CB
:1041C0002000C0B201F010FCB14802F0A7FC0121B0
:1041D0006D48E4B2142262438018C06802F0B1FD59
:1041E0002FE01C2D10D12000C0B201F021FCA84806
:1041F00002F094FC01216448E4B214226243801866
:10420000C06802F09EFD1CE05F48E4B214216143E7
:104210004018C0680F2814D001215B48E4B2142272
:1042200062438018C06802F08CFD200040B2FFF7A6
:1042300012FE362D02D11B209549C871944802F018
:104240006DFC70BD6A32002038B504007F480068FC
:10425000E4B202216143405E0A2103F0E3FE05005F
:104260002DB2002D03D0022D05D008D30BE0A348BA
:1042700002F054FC07E0A24802F050FC03E00248C0
:1042800002F04CFCFFE731BD781A002038B504007D
:104290006E480068E4B202216143405E0A2103F0E7
:1042A000C1FE05002DB2002D03D0022D09D004D38C
:1042B0000BE0AE4802F032FC07E0AD4802F02EFC05
:1042C00003E0AC4802F02AFCFFE731BD10B5040062
:1042D00000F018F8A848808B02F042FC012303226A
:1042E000A649200000F052F800230522A44920002E
:1042F00000F04CF810BD0000541A0020003C0108EA
:10430000343C010830B5002400250020040064B2CC
:10431000042C23D2002005006DB21A2D1CD2964821
:1043200064B208216143405817496DB214226A43B0
:10433000895888420ED1734800686DB202216943E2
:10434000405E0A2103F06EFE8B4964B2082262438C
:10435000891888806D1CDFE7641CD8E78648808850
:104360008849088084488089874908808248808AF3
:104370008649088030BD0000683C01080C400108F7
:10438000184001082440010830300108FDB50F0035
:104390000025002400200500280040B26946097964
:1043A00000B209B288422FDA0020040064B21A2C4D
:1043B00028D26DB2082068433858754964B2142277
:1043C0006243895888421BD101266846007A00283A
:1043D0000CD14C48006864B202216143405E0A215E
:1043E00003F020FE002801D1002006003100C9B2F0
:1043F0006DB2082068433818406802F0A2FC01E062
:10440000641CD3E76D1CC7E7F7BD00B50F49096809
:10441000C0B202224243895E9B225200891A02D016
:104420005A3908D010E0FA21084A1268C0B20223B3
:104430004343D15208E09B214900044A1268C0B2AC
:1044400002234343D152FFE700BD00003432002075
:1044500000B52C490968C0B202224243895EFA398C
:1044600002D03C3909D011E09B214900254A12684D
:10447000C0B202234343D15208E0C8214900214A77
:104480001268C0B202234343D152FFE700BD0000CF
:104490006C31002000B51B490968C0B202224243BA
:1044A000895EC83906D014390CD01E3912D01E3995
:1044B00019D021E0DC21134A1268C0B20223434321
:1044C000D15219E0FA210F4A1268C0B202234343C5
:1044D000D15211E08C2149000A4A1268C0B202236D
:1044E0004343D15208E096214900064A1268C0B2FF
:1044F00002234343D152FFE700BD00008018002093
:10450000841A00203432002000B522490968C0B264
:1045100002224243895EDC3906D01E390CD01E3996
:1045200012D0143918D020E0C8211A4A1268C0B23B
:1045300002234343D15218E0DC21164A1268C0B26C
:1045400002234343D15210E0FA21124A1268C0B24A
:1045500002234343D15208E08C2149000D4A1268DE
:10456000C0B202234343D152FFE700BD901A00209E
:10457000A81A00209C1A0020E0110020A83E010883
:10458000243D01086E3200206A3200206C32002087
:10459000303001083432002038B504000D00E068E6
:1045A000042800D146E2052800D120E20A2800D1E3
:1045B0000FE10B2806D0272800D13BE2282800D1A4
:1045C00015E25AE2A0680069342804D12800C0B27C
:1045D000FFF73EFF56E2A0680069052807D0A068F3
:1045E0000069082803D0A06800690B280ED18B4809
:1045F0000068EDB202216943405E9621490088427D
:1046000004DA2800C0B2FFF745FF3BE283480068A8
:10461000EDB202216943405E8D49EDB214226A4336
:1046200089180622895E884213DA7C480068EDB258
:1046300002216943405A8649EDB214226A4389181F
:104640004989401875490968EDB202226A438852C7
:10465000BEE0A068006919281BD170480068EDB25F
:1046600002216943405E7A49EDB214226A438918F7
:104670000622895E88420CD17548EDB21421694347
:104680004018808865490968EDB202226A43885261
:104690009EE0A06800691B281BD160480068EDB24D
:1046A00002216943405E6A49EDB214226A438918C7
:1046B0000622895E88420CD16548EDB21421694317
:1046C0004018808855490968EDB202226A43885231
:1046D0007EE0A068006904281BD150480068EDB254
:1046E00002216943405E5A49EDB214226A43891897
:1046F0000622895E88420CD15548EDB214216943E7
:104700004018808845490968EDB202226A43885200
:104710005EE0A068006904281BD140480068EDB243
:1047200002216943405E4A49EDB214226A43891866
:104730000622895E88420CD14548EDB214216943B6
:104740004018808835490968EDB202226A438852D0
:104750003EE0A06800691C281BD130480068EDB21B
:1047600002216943405E3A49EDB214226A43891836
:104770000622895E88420CD13548EDB21421694386
:104780004018808825490968EDB202226A438852A0
:104790001EE0A06800691C281AD120480068EDB20C
:1047A00002216943405E2A49EDB214226A43891806
:1047B0000622895E88420BD12548EDB21421694357
:1047C0004018808815490968EDB202226A43885270
:1047D00053E1A0680069342804D12800C0B2FFF773
:1047E00014FE4FE1A0680069052807D0A0680069A1
:1047F000082803D0A06800690B2811D10748006879
:10480000EDB202216943405EFF212E31884207DA72
:104810002800C0B2FFF778FE34E100BF3432002038
:104820000B48EDB21421694340180421405ECA4987
:104830000968EDB202226A43895E884217DAC648E7
:104840000068EDB202216943405A014902E000BF0D
:1048500030300108EDB214226A4389184989401AA0
:10486000BD490968EDB202226A438852BEE0A068E1
:10487000006919281BD1B8480068EDB202216943CC
:10488000405EC049EDB214226A4389180422895E51
:1048900088420CD1BB48EDB2142169434018C0884E
:1048A000AD490968EDB202226A4388529EE0A068D1
:1048B00000691B281BD1A8480068EDB2022169439A
:1048C000405EB049EDB214226A4389180422895E21
:1048D00088420CD1AB48EDB2142169434018C0881E
:1048E0009D490968EDB202226A4388527EE0A068C1
:1048F000006904281BD198480068EDB20221694381
:10490000405EA049EDB214226A4389180422895EF0
:1049100088420CD19B48EDB2142169434018C088ED
:104920008D490968EDB202226A4388525EE0A068B0
:10493000006904281BD188480068EDB20221694350
:10494000405E9049EDB214226A4389180422895EC0
:1049500088420CD18B48EDB2142169434018C088BD
:104960007D490968EDB202226A4388523EE0A068A0
:1049700000691C281BD178480068EDB20221694308
:10498000405E8049EDB214226A4389180422895E90
:1049900088420CD17B48EDB2142169434018C0888D
:1049A0006D490968EDB202226A4388521EE0A06890
:1049B00000691C281AD168480068EDB202216943D9
:1049C000405E7049EDB214226A4389180422895E60
:1049D00088420BD16B48EDB2142169434018C0885E
:1049E0005D490968EDB202226A43885245E05A489F
:1049F0000068EDB202216943405E6249EDB21422C3
:104A00006A4389180622895E884212DA5248006891
:104A1000EDB202216943405A5A49EDB214226A4369
:104A20008918498940184C490968EDB202226A4345
:104A3000885222E05348EDB2142169434018042102
:104A4000405E45490968EDB202226A43895E8842A8
:104A500012DA41480068EDB202216943405A4949DF
:104A6000EDB214226A4389184989401A3A49096803
:104A7000EDB202226A438852FFE7374801680420FA
:104A800001F02AFF31BD38B504006069002802D06A
:104A9000012804D02AE0606802F040F826E00025F2
:104AA000206900F05BF805002069042804D1280083
:104AB000C0B200F099FF15E020691C2804D128003D
:104AC000C0B200F0B5FF0DE0280040B2FFF7C3F917
:104AD0002C48EDB2142169434058362802D11B20DE
:104AE000A949C871A84802F019F8FFE731BD70B5AF
:104AF0000024022001F0D6FE0400532200211020E1
:104B000002F018FF0600A148006900F027F8050030
:104B1000280040B2FFF79FF99B48F06000203072F8
:104B20002078002803D03100092003F0C9F870BDB7
:104B300070B505000C001600606900280BD0280035
:104B400000F0D7FA01210F48F6B214227243801800
:104B5000C06802F0F6F870BD3432002000B50100E4
:104B600000200022100040B21A2808D2054A40B2A4
:104B700014234343D258914201D0401CF3E7C0B202
:104B800000BD000030300108F8B507000E00002419
:104B90003000FFF7E3FF0500292E09D068D32B2E44
:104BA00026D015D32D2E43D032D32E2E50D05FE0F9
:104BB0008C480068EDB202216943405E002803D1B1
:104BC000894801F0ABFF02E0884801F0A7FF4FE001
:104BD00084480068EDB202216943405E002803D199
:104BE000834801F09BFF02E0824801F097FF3FE01D
:104BF0007C480068EDB202216943405E002803D181
:104C00007D4801F08BFF02E07C4801F087FF2FE038
:104C100074480068EDB202216943405E002803D168
:104C2000774801F07BFF02E0764801F077FF1FE054
:104C30006C480068EDB202216943405E002803D150
:104C4000714801F06BFF02E0704801F067FF0FE070
:104C500064480068EDB202216943405E002803D138
:104C60006B4801F05BFF02E06A4801F057FFFFE785
:104C70005C480068EDB202216943405E002801D023
:104C80000120040057480168042001F025FE380087
:104C900000F02FFA2100C9B2B648EDB214226A43DF
:104CA0008018C06802F04DF8F1BDF8B507000D009E
:104CB000002628001D2812D01F2813D0202814D029
:104CC000212815D0222816D0232808D0252809D03D
:104CD00026280AD027280BD028280CD00DE0292020
:104CE00000900AE02B20009007E02C20009004E0C8
:104CF0002D20009001E02E2000901D2D04DB232D9F
:104D000002DA0120060005E0232D03DB292D01DA5C
:104D10000020060000240098FFF720FF0400F6B2F0
:104D2000002E07D00A202F49096864B2022262438C
:104D3000885206E000202B49096864B202226243CF
:104D4000885228480168042001F0C6FD380000F0B0
:104D5000D0F93100C9B2874864B214226243801886
:104D6000C06801F0EEFF64B2022363439BB20222EB
:104D700004218C461B48016864B202206043081875
:104D8000614600F0A0FCF1BD6C310020481200200B
:104D900070B5040000250026200000F06EFD042000
:104DA00005006DB21A2D19D20E4800686DB20221AD
:104DB0006943405E6DB202216943615E88420BD057
:104DC000012006006DB202206843205A0549096897
:104DD0006DB202226A4388526D1CE2E73000C0B215
:104DE00070BD00003432002098180020A418002064
:104DF000C8180020D41800202819002034190020D9
:104E00004C19002058190020701900207C1900202E
:104E1000B8190020C4190020F8B507000E000C25B1
:104E200030000E280AD00F280BD010280CD01228E2
:104E300004D0132805D0142806D007E0052005006B
:104E400004E00620050001E0072005000E2E05D035
:104E50000F2E03D0102E01D0112E7AD1112E04D096
:104E6000280001F01FFDAA490860A94800680A212E
:104E7000405E002814D1052D03D1A64801F04EFE56
:104E80000AE0062D03D1A44801F048FE04E0072DF6
:104E900002D1A24801F042FE6420A149086060E00E
:104EA000112E29D100240420040064B21A2C0DD242
:104EB000304864B21421614340180089B44909683C
:104EC00064B2022262438852641CEEE7B048016873
:104ED000042001F001FD3800FFF7F8F9380000F078
:104EE00008F9002334220421A948006800F0EBFBF4
:104EF000A84801F013FE34E085480068FFF748FF3A
:104F0000002811D0A2480168042001F0E5FC380017
:104F1000FFF7DCF90023342204219D48006800F0EB
:104F2000D2FB380000F0E5F8052D03D1794801F0F7
:104F3000F5FD0AE0062D03D1774801F0EFFD04E00E
:104F4000072D02D1754801F0E9FD64209B490860F6
:104F500007E08F480168280001F0BEFCB74801F067
:104F6000DDFDF1BDC820964908600020B449086005
:104F70007047000030300108FEB50024082001F021
:104F800091FC0400082002900194624D029A01995C
:104F9000280001F013FD092001F084FC040008251D
:104FA00000945D4E2A000099300001F007FD0A20B0
:104FB00001F078FC04000826584F32002100380028
:104FC00001F0FCFCF7BDFEB50400A08905006D08EA
:104FD0000026002069460880A06804282DD1002002
:104FE00006003000C0B2E18980B288424FD2022070
:104FF00002902000103001906F46029A019938000B
:1050000001F0DCFC009800B29B49EDB214226A4327
:1050100089180422895E88420ADB9748EDB2142180
:10502000694340180621405E009909B2884201DABE
:1050300000202DE06D1CB61CD3E7002006003000D8
:10504000C0B2E18980B2884221D2F6B2A019007CB8
:1050500000281AD0F6B2A019007C202815D0F6B28C
:10506000A019007C302804DBF6B2A019007C3A2895
:105070000BDBF6B2A019007C412804DBF6B2A019C4
:10508000007C7B2801DB002002E0761CD7E70120B2
:10509000FEBDF0B583B005000C002000FFF793FFC4
:1050A000002825D0A06804281DD1A0890600760814
:1050B000E089019020001030009035480068F6B279
:1050C000022171434718019A0099380001F076FCDB
:1050D0003100C9B22800FFF71BF82D4801680420F1
:1050E00001F0FAFB04E021001031A06801F0F4FBAC
:1050F000F7BD10B5040061480078002807D00020F3
:105100005E49087000220521200001F008FE10BD54
:1051100038320020501800205C1800206818002049
:105120002C32002010B5032001F0BCFB047802F003
:1051300056FB53490022895E002914D0022901D070
:1051400004D324E000214F4A116020E0C0B20028BF
:1051500005D14C490968491C4A4A116002E0002106
:10516000484A116013E0C0B200280CD1E4B2002C10
:1051700003D00021434A116008E042490968491CF4
:10518000404A116002E000213E4A1160FFE710BD75
:1051900034320020481A002010B504003A48007844
:1051A000002803D0394801F028FF04E0384A2100E4
:1051B000364801F0F1FE00F005F810BD283200205D
:1051C0007C1C002010B500200400E4B21A2C34D25C
:1051D0002948E4B2142161434058292808D02B28DB
:1051E0000DD02C2812D02D2817D02E281CD022E02C
:1051F0002200D2B22749284800F024F81BE0220000
:10520000D2B22649264800F01DF814E02200D2B29E
:105210002449254800F016F80DE02200D2B22349B7
:10522000234800F00FF806E02200D2B221492248BC
:1052300000F008F8FFE7641CC7E710BD541A00200F
:105240003C32002070B504000D0016001B480068B9
:10525000F6B202217143405E0A2102F0E3FE01280A
:1052600004D10020A8600120A06003E00020A0601D
:105270000120A86070BD000030300108833200209A
:105280006C320020243200202C2F0020F02E002031
:1052900030180020901200207812002020130020E7
:1052A00008130020B01300209813002040140020A1
:1052B00028140020D0140020B8140020343200201C
:1052C000704770B5060000240025F6B230000028B3
:1052D00023D0012830D002283ED003284CD0052806
:1052E00072D0062800D19CE0072800D1C6E008282B
:1052F00000D1F0E0092800D115E10A2800D13AE1F7
:105300000B2800D14BE10C2800D120E10D2800D161
:1053100059E10E2800D165E17EE1192000F085F900
:105320000400E4B2002C06D0002302220421D74856
:10533000006800F0C8F96FE11A2000F076F9040067
:10534000E4B2002C07D0022302220421CF480068D7
:10535000801C00F0B8F95FE11B2000F066F9040042
:10536000E4B2002C07D0042302220421C7480068BD
:10537000001D00F0A8F94FE1292000F056F90400C3
:10538000002000F052F920430400012000F04DF904
:1053900020430400E4B2002C15D0FFF713FF0823CC
:1053A00006220421B9480068083000F08CF9B7489B
:1053B00000680821405E00F0DBF905002900C9B251
:1053C000022001F0BEFC27E12B2000F02EF90400A2
:1053D000052000F02AF920430400062000F025F9FA
:1053E00020430400072000F020F920430400E4B229
:1053F000002C15D0FFF7E6FE0E2308220421A34857
:1054000000680E3000F05FF9A04800680E21405E91
:1054100000F0AEF905002900C9B2052001F091FCA9
:10542000FAE02C2000F001F90400082000F0FDF85B
:1054300020430400092000F0F8F8204304000A206B
:1054400000F0F3F820430400E4B2002C15D0FFF77D
:10545000B9FE1623082204218C480068163000F09B
:1054600032F98A4800681621405E00F081F9050093
:105470002900C9B2062001F064FCCDE02D2000F027
:10548000D4F804000B2000F0D0F8204304000C20D6
:1054900000F0CBF8204304000D2000F0C6F82043B4
:1054A0000400E4B2002C15D0FFF78CFE1E23082266
:1054B0000421764800681E3000F005F97348006842
:1054C0001E21405E00F054F905002900C9B20720F2
:1054D00001F037FCA0E02E2000F0A7F804003420F3
:1054E00000F0A3F820430400352000F09EF820438C
:1054F0000400E4B2002C15D0FFF764FE2623062238
:10550000042162480068263000F0DDF85F4800683A
:105510002621405E00F02CF905002900C9B20120C7
:1055200001F00FFC78E0362000F07FF80400E4B2D0
:10553000002C0BD02E2302220421544800682E3068
:1055400000F0C1F80121082001F0FBFB64E0172006
:1055500000F06BF80400E4B2002C0BD02C230222E4
:1055600004214A4800682C3000F0ADF801210020E9
:1055700001F0E7FB50E0042000F057F80400E4B22B
:10558000002C0BD030230222042140480068303028
:1055900000F099F801210C2001F0D3FB3CE01C2025
:1055A00000F043F80400E4B2002C0BD032230222B6
:1055B000042136480068323000F085F801210920C6
:1055C00001F0BFFB28E0C349082000F061F8C249A0
:1055D000092000F05DF8C1490A2000F059F8FFF7F2
:1055E000CBFC19E0382000F020F80400E4B2002CD5
:1055F00011D006230222042124480068801D00F0F7
:1056000062F8224800680621405E0A2102F00AFD85
:1056100080B201F0A5FAFFE7E4B2002C04D01B48E9
:105620000168042001F058F970BD10B50100002296
:1056300000200200D2B21B2A25D2A948D2B21423DC
:105640005343C05881421CD110480068D2B2022393
:105650005343C05EA24BD2B2142454431B190824F6
:105660001B5F98420DD09E48D2B214235343C018FA
:105670000089064B1B68D2B2022454431853012000
:1056800002E0521CD6E7002010BD0000343200209A
:10569000F8B505000F0000240026280001F002F9EB
:1056A00004003900200002F0C3FD0600002E09D0DE
:1056B0003900280001F010F90023082229002000F9
:1056C00000F001F8F1BDF3B581B015001E00ADB2D8
:1056D000052D18DAF2220021142002F02BF9040023
:1056E0000298A060E581A681ADB2019800902700E4
:1056F00010372A000099380001F060F921000520D8
:1057000002F0DEFA33E0ADB2112D18DAF2220021F8
:10571000202002F00FF904000298A060E581A68124
:10572000ADB201980090270010372A000099380088
:1057300001F044F92100052002F0C2FA17E0F2223C
:105740000021442002F0F6F804000298A060E581F0
:10575000A681ADB201980090270010372A00009969
:10576000380001F02BF92100052002F0A9FAF7BD5D
:1057700000B5010009B20800002803D00A2803D1AF
:10578000012002E0002000E0002000BDF8B5002468
:1057900000200400E4B20A2C55D200270025392647
:1057A000BE48E4B20421614340580069232808D070
:1057B000252809D026280AD027280BD028280CD045
:1057C0000EE0292006000BE02B20060008E02C202C
:1057D000060005E02D20060002E02E200600FFE76F
:1057E000392E2ED03000FFF7B9F90700CB480068FA
:1057F000FFB202217943405EFFF7BAFF0500EDB228
:10580000002D0FD00120A549E4B20422624389583B
:105810008860A248E4B20421614340184068002136
:1058200081600EE000209D49E4B204226243895861
:1058300088609A48E4B2042161434018406801211D
:105840008160A41CA6E7F1BD70B504000D00200026
:105850003C3002F05FF800221600ADB2FA20800062
:105860006843FA21890002F0E0FB0100320089B2AE
:1058700020003C3002F0EEFC70BD10B5002211009B
:10588000C9B21A2925D2C9B202224A43825E144BF8
:10589000C9B214244C431B1904241B5F9A420CDB2D
:1058A0000F4AC9B214234B43D2180623D25EC9B2A1
:1058B00002234B43C35E9A4209DA094AC9B2142350
:1058C0004B43D2181289C9B202234B43C252491C1E
:1058D000D6E710BD0C40010818400108244001081B
:1058E0003030010810B52920FFF738F904000020F6
:1058F000FFF734F904000520FFF730F90400082011
:10590000FFF72CF904000B20FFF728F904003420DE
:10591000FFF724F904001720FFF720F904003620D0
:10592000FFF71CF904000420FFF718F904001C20FD
:10593000FFF714F9040010BD00B5794940B21422F4
:105940004243895806290DD0754940B2142242437A
:105950008958092906D0724940B214224243895815
:105960000C291DD16D49096840B202224243895E6B
:105970006222D243914206DB64216A4AD1714221FC
:10598000684A11720CE06549096840B2022242433C
:10599000895E6222D243914202DA6421614A117225
:1059A00000BD38B50400F62200210C2001F0C2FF32
:1059B0000500AC602900052002F082F931BD00B578
:1059C000594A1060002905D1574A5268521C564B5B
:1059D0005A6001E0544A516000BD032052490860FA
:1059E0000020514948607047F8B504004B480068F2
:1059F000E4B202216143405E002808D108254B4EE5
:105A0000484F2A003100380000F0D8FF0FE043482B
:105A10000068E4B202216143405E0A2807D10825EC
:105A2000434E404F2A003100380000F0C7FFF1BD5F
:105A3000F8B5040039480068E4B202216143405ED1
:105A4000C82808D108253B4E364F2A0031003800BF
:105A500000F0B4FF20E031480068E4B20221614365
:105A6000405EA02808D10825334E2E4F2A00310071
:105A7000380000F0A3FF0FE028480068E4B20221DC
:105A80006143405E782807D108252C4E254F2A0017
:105A90003100380000F092FFF1BD0000B811002085
:105AA00070B505000024022000F0FCFE0400207800
:105AB00000280CD053220021102001F03BFF0600EB
:105AC000F560002030723100092002F0F9F870BD55
:105AD00010B50400E4B2002C09D019480068C06871
:105AE000007BC106C90E164800F088FA08E0144889
:105AF0000068C068007BC106C90E114800F0C2FAF8
:105B000010BD80B5002001F0FFF801BD80B5012077
:105B100001F0FAF801BD0B490870704734320020DB
:105B2000303001086C310020641C0020F81800207F
:105B300004190020A41B0020B01B0020BC1B002067
:105B4000AC3100207E32002010B582B0040000206D
:105B5000009069460B2000F0BFFE00F005FF02F048
:105B600053FC13BDF6B583B004001F000A9E0B9DC5
:105B70000023049A21002000283000F031F8039916
:105B8000200002F011FD0020029000200190002072
:105B9000009033003A002900C9B2200002F044FD11
:105BA00005B0F0BD10B50400200002F069FD10BD85
:105BB00070B504000D002000283001F0ABFE00227B
:105BC0001600FA2080006843FA21890002F02DFABD
:105BD0000100320089B22000283002F03BFB70BD8A
:105BE000F8B504000D0017001E00042F02DBF6B20A
:105BF000022E03DB3321084802F0F6FB0020606030
:105C00000020A0810020E08138002080A5600020D5
:105C1000A070E670F1BD00BF78400108002303606A
:105C2000416002720023437200238372C2720273C6
:105C3000704730B4012100220368001D002B0BD0F7
:105C40000468001D0C4202D04D466D1E641922608E
:105C5000241D1B1FF0D0FAE730BC7047F8B50400D4
:105C60000D00267F1748F6B2875D042D10DB16481D
:105C7000006885420CDAF6B2002E09D0F6B2212E69
:105C800006DA1248F6B2042171434058A04203D00C
:105C900037210F4802F0A8FB72B60E4800680421B5
:105CA00069434018FFB20B49096804226A43891806
:105CB000FFB2C95D084AF6B2925D0A43C25562B6A8
:105CC000F1BD00BF7C3B010854320020AC2C002009
:105CD0001441010850320020F43A010810B50200C6
:105CE0000023002901D008880300224800789BB2D5
:105CF00080B2834212D220489BB204245C430059F4
:105D00000068824208D1002900D00B801A489BB25B
:105D100004245C43005902E05B1CE6E7002010BD50
:105D200030B503000024002A01D010880400114877
:105D30000078A4B280B284421AD20F48A4B20425DB
:105D4000654340590068834210D10B48A4B2042532
:105D5000654340594068814208D1002A00D0148030
:105D60000548A4B204256543405902E0641CDEE7FF
:105D7000002030BDE4410108FC3C010870B586B04C
:105D800006000C000025346003200290002005006E
:105D9000EDB2A068854200D3B9E00121964832688F
:105DA000D268EDB204236B43D25852095207520F06
:105DB00008235A438018406802F019FD0120E16869
:105DC000EDB204226A438958090AC906C90E8840FF
:105DD0000090E068EDB2042169434058400B400751
:105DE000400F002806D0022875D02CD3042801D0FB
:105DF00076D37AE000200190E068EDB20421694397
:105E00004058000C4007400F012802D101200490A7
:105E100018E0E068EDB2042169434058000C4007E7
:105E2000400F002802D1022004900BE0E068EDB2A0
:105E3000042169434058000C4007400F022801D15B
:105E40000020049051E00120019000200490E068BF
:105E5000EDB2042169434058C00C4007400F0028B0
:105E600002D1012003900BE0E068EDB20421694308
:105E70004058C00C4007400F012801D1002003907A
:105E8000E068EDB2042169434058000C4007400F20
:105E900003280AD1E068EDB204216943405CC106E1
:105EA000C90E300000F037F814E0E068EDB20421CC
:105EB00069434058000C4007400F04280AD1E068AD
:105EC000EDB204216943405CC106C90E300000F008
:105ED00059F8FFE709E0032001900020049004E056
:105EE0000320019000200490FFE769464248326891
:105EF000D268EDB204236B43D25852095207520FB5
:105F000008235A43805802F0B9FC6D1C40E7012079
:105F1000307106B070BDF8B504000F0000260025F2
:105F200000200500EDB220688068854229D201205A
:105F30002168C968EDB204226A438958090AC90672
:105F4000C90E884006002068C068EDB2042169438C
:105F5000405CC006C00E874211D1310089B226488C
:105F60002268D268EDB204236B43D258520952071B
:105F7000520F08235A43805889B2816101E06D1C99
:105F8000D0E7F1BDF8B505000E00002400200400A4
:105F9000E4B22868806884422BD22868C068E4B2E2
:105FA00004216143405CC006C00E86421FD101201F
:105FB0002968C968E4B2042262438958090AC906FB
:105FC000C90E8840694608800022684601880A4850
:105FD0002B68DB68E4B204276743DB595B095B0786
:105FE0005B0F08277B43C05802F0B7FC01E0641C3C
:105FF000CEE7F1BD00000000CC3C010838B505003B
:106000000C0021002800FFF786FF31BDF8B5040021
:106010000F000026F643002500200500EDB22068A1
:106020008068854228D22068C068EDB204216943A7
:10603000405CC006C00E87421CD101212068C068A8
:10604000EDB204226A438058000AC006C00E8140A7
:1060500089B20B482268D268EDB204236B43D25850
:1060600052095207520F08235A43805802F066FC27
:10607000060001E06D1CD1E7300040B2F2BD000027
:10608000CC3C010838B505000C0021002800FFF7C2
:1060900079FF31BD1CB50400A0480460A048E0634E
:1060A00000210C20FFF71AFE0100E06B02F095FCC6
:1060B0000B2001900A2000909A4B71229A492000EF
:1060C000FFF750FD13BD10B504002000FFF76AFD77
:1060D00010BD38B505000C00280000F017FB9348F0
:1060E000A860042032BDF0B583B004000E003088F3
:1060F000012811D05B2800D18FE05E2824D05F28D2
:106100005BD0602800D1B9E068280CD0692812D093
:10611000712800D1BFE0FDE0FA2189002000FFF7DF
:1061200047FD0120F9E0252300227168200001F0DD
:1061300021FE0120F1E07068A063200000F01AFB4E
:106140007A48A0600420E8E0350000204621605233
:10615000A86820647648A9680822514340188088BE
:10616000E98988420CD2AB897148A9680822514359
:106170004018828829001031200000F093FA06E0D0
:10618000AB89EA8929001031200000F08BFA686899
:1061900001F005FE010089B2A86800F0FDFBA868C7
:1061A00000F028FB002806D05C480068002802D0D8
:1061B0000020604908800120AFE0002046216052A5
:1061C0007068A063B06820642A220021442001F096
:1061D000B1FB0500B089A881F089E881B068A860AA
:1061E00034200190002000902F001037009A019970
:1061F000380001F0FFFDB389F28929001031200039
:1062000000F022FA0020686000222900A06BA36B36
:106210001B68DB68984701207FE0350022230022BD
:106220006968200001F0A6FD4148A9680822514391
:1062300040188079C0071FD56868A06300204621F8
:106240006052002048216054A8682064E868002853
:1062500006D1288A44216052AC48A06004205CE04A
:106260003348216C082251434018808844216052F1
:10627000A748A060042050E001204EE03500287AB5
:10628000002803D0200000F075FA02E0200000F0A2
:106290003DFA012041E027480021405E012807DB4C
:1062A00024480088FA218900401A224908800DE01C
:1062B00020480021405E0021C943884206D02000CA
:1062C00000F058FA0020C0431A4908809148002184
:1062D000405E002807D08F480088FA218900401AC4
:1062E0008C4908800EE08B480021405E0021C943A4
:1062F000884207D00020C04386490880BF48A0607C
:1063000004200AE0FA21890004480068FFF750FCE5
:10631000012002E0CB48A0600020FEBD58320020E2
:106320001031002068300020D360000801660008AA
:10633000D00E00208A1C0020F8B504000E00308822
:10634000012807D0232847D0242800D19DE05B28CE
:106350003AD0D6E04420205A3C2818DA5D220021A9
:10636000442001F0E7FA050000234420225A2900C6
:106370000A31200000F068F94420205A28810022C8
:106380002900A06BA36B1B68DB68984717E05C22B1
:106390000021442001F0CEFA0500206C00F02AFA1A
:1063A00001003C232A000832E06BE76BBF68B84766
:1063B00000222900A06BA36B1B68DB689847B848D4
:1063C0005449088001209FE02323032271682000A4
:1063D00001F0D0FC012097E037007868002808D150
:1063E0004620205A3C30462160520020482160540B
:1063F00010E04820205C401C482160544820205C6C
:10640000042807DB0020C043424908807B48A06085
:10641000042079E04420205A4621615A401A3C2841
:1064200014DB5C220021442001F084FA05000023E3
:106430003C2229000831200000F006F90022290042
:10644000A06BA36B1B68DB68984719E05D220021F5
:10645000442001F06FFA05004420205A4621615A79
:10646000401A288100232A8929000A31200000F0DF
:10647000EBF800222900A06BA36B1B68DB68984730
:1064800087482449088001203EE0370078680028CA
:106490002FD04820205C401C482160544820205CBC
:1064A000042807DB0020C0431A4908805348A06035
:1064B000042029E05D220021442001F03BFA050080
:1064C0004420205A4621615A401A288100232A89F3
:1064D00029000A31200000F0B7F800222900A06B43
:1064E000A36B1B68DB6898476D480A490880012048
:1064F0000AE00020C043074908804048A06004200B
:1065000002E03E48A0600020F2BD000019650008CE
:10651000396300088C1C002070B504000E00308820
:10652000012806D05B2823D05C2829D05D2839D0EB
:1065300060E0CF48216C082251434058002812D116
:1065400000254420205AADB2A8420CD3206C00F0A4
:1065500051F9ADB24119E06BE26BD26890478020EF
:10656000C0002D18EDE74E48C2490880012044E0E4
:10657000232303227168200001F0FCFB01203CE092
:1065800000233C2231000831200000F08BF8232347
:1065900000227168200001F0EDFB4148B5490880F8
:1065A00001202AE0350000232A8929000A31200031
:1065B00000F078F8242300226968200001F0DAFB5B
:1065C000686801F0ECFB010089B2206C00F0E4F98E
:1065D000206C00F00FF9002804D0FA218900200077
:1065E000FFF7E6FA0020C043A2490880B948A0603E
:1065F000042002E0B748A060002070BDE7600008FA
:1066000038B504000D002888012802D068280AD077
:1066100013E026230022A16B200001F0ABFB002039
:10662000A06301200CE0252300226968200001F00E
:10663000A1FBA848A060042002E00248A06000205E
:1066400032BD0000B7690008F8B504000E0015005F
:106650008748216C082251434058002811D08448B3
:10666000216C0822514347584620205A3F1868465B
:1066700000883F18ADB22A003900300000F09EF9C2
:106680000CE0206C00F0B6F8ADB22B0032004621D1
:10669000615A4118E06BE76BBF68B847F1BD000075
:1066A000B80B0000F2B582B0040015001E0070485F
:1066B000216C082251434058002812D06C48216CAC
:1066C0000822514347584620205A3F18B6B2BF19F6
:1066D000ADB2029800902A000099380000F06EF9DF
:1066E0000EE0206C00F086F8ADB22B00029A462135
:1066F000615A4018B6B28119E06BE76B7F68B84702
:106700004620205A401946216052F7BDF8B50600D0
:106710000024A4B20A2C2CD29848A4B208216143C8
:106720004558974808216943405800281FD094488D
:1067300008216943401883889148082169434258D9
:106740008E48A4B20821614340184168F06BF76B92
:10675000BF68B8478A48082169434018C08880212B
:10676000890101438648082255434019C180641CB1
:10677000CFE7F1BDF8B505000024E86BC06800283C
:1067800004D08049E86BEA6BD2689047A4B20A2C27
:106790002FD27A48A4B208216143401840680028EB
:1067A00025D07648A4B20821614346587348A4B264
:1067B0000821614340184068002818D02C4808215F
:1067C00071434058002812D02948082171434018CD
:1067D000838827480821714342586848A4B2082199
:1067E000614340184168E86BEF6B7F68B847641CF1
:1067F000CCE7F1BD10B501000020002292B20A2AB8
:1068000010D25E4B92B2082454431B598B4207D1DD
:106810005A4B92B2082454431B195B68180001E0DC
:10682000521CEBE710BD10B500240C2C12DA20002E
:10683000FFF7E0FF00280BD05148082161434018C2
:10684000C088514901404E48082262438018C180E7
:10685000641CEAE710BD0100494808224A43801839
:10686000C0888022D201104080B2800BC0B2704735
:10687000D00E00208C1C002038B50400002520001C
:10688000FFF7E9FF00280AD03D480821614340187E
:10689000C08880218901084080B2400B0500280093
:1068A000C0B232BD70B5040000252000FFF7A2FF82
:1068B00006002000FFF7E0FF002805D0304808213F
:1068C00061434058050002E0002E00D0350028004A
:1068D00070BD0000E7600008F8B504000D0020005E
:1068E000FFF7B9FF00283CD01E48082161434058FB
:1068F000002836D01B4808216143405885420DD0FE
:1069000018480821614340188688164808216143C9
:10691000475832002900380000F050F8114808218B
:1069200061434018C0888021890101430D48082235
:1069300062438018C1802000FFF75CFF00280CD064
:1069400012480068002808D0114812490880FA212E
:1069500089000E480068FFF72BF90D21200000F098
:106960001BF8F1BDD00E002080B508480068002853
:1069700003D006480068FFF7FDFE01BD143A010888
:10698000D00E002000BC0108FFDF000058320020BC
:10699000881300008A1C002070B505000C0014222A
:1069A00000210C2000F0C6FF060075603481300025
:1069B00002F020F870BD020003207047124207D099
:1069C0008B0706D00B78491C0370401C521EF7D869
:1069D0007047830706D00B78491C0370401C521E79
:1069E000F9D1704770B4103A03D378C9103A78C01F
:1069F000FBD2530701D318C918C001D508C908C074
:106A0000D20704D30B880380891C801C002A01D57F
:106A10000B78037070BC70471CB50400092001900E
:106A200014200090AC4B7122AC492000FFF79AF87B
:106A300007212000FFF712F914212000FFF70EF9BB
:106A400013BDA74A8263A74A82600420704738B505
:106A500004000D002888012812D0022858D00728E9
:106A600054D0142852D0532823D063282BD0642824
:106A700042D0682830D0692836D0712814D049E037
:106A8000994802F013F8984802F033F997480178D2
:106A9000954802F0B5F80022FA218900200028303C
:106AA00001F0D8FB012038E0200000F0F2F80120CE
:106AB00033E0280000F076F88D4801882000FFF7C9
:106AC00077F8012029E0EA6852B2A96849B28648FD
:106AD00002F0A5F8012020E02523002269682000AB
:106AE00001F048F9012018E0252300226968200000
:106AF00001F040F9012010E028897C4908702989BB
:106B0000C9B2794802F07CF8012006E0012004E0D7
:106B1000012002E07748A060002032BD70B505007A
:106B200000240220FFF7BEFE0400532200211020A3
:106B300000F000FF060070480078002802D16F487E
:106B4000056002E000206C490870F560002030729A
:106B50002078002803D03100092001F0B1F870BD81
:106B600038B50400642200210C2000F0E3FE05008B
:106B70002C812900092001F0A3F831BD10B5532262
:106B80000021102000F0D6FE040001202072210018
:106B9000092001F095F810BD80B558480068FFF74E
:106BA000BDFF01BD38B50400207A002803D04E484F
:106BB00002F09FF81CE0E06801F046F90500ADB274
:106BC0000A2D07DA00204E490872E168464801F0B4
:106BD000DBFF0DE001204A490872E068484908607F
:106BE000E06847494860464801683F4801F0CCFFEB
:106BF00031BDF8B50600B06B80883D49098801F0C9
:106C000011FAFA2189004843FA21890001F00DFAAE
:106C10003B49498981423BD308252024394F220032
:106C20002900380001F0E6F83548006801F00CF959
:106C3000694608806846008808280ADB30480168F1
:106C4000294801F0A1FF2E480068401C2C4908602B
:106C50001BE02B480068007800280ED02848016807
:106C6000284802F0C3F827491F4801F08DFF244847
:106C70000068401C2249086007E022491A4801F0D8
:106C800083FF1F4840681E49086000201C49488156
:106C9000F1BD10B504001A48007A002805D0184844
:106CA0004089401C1649488102E00020144948816F
:106CB000A06B0068022806D00CD3042808D006D3A5
:106CC000052806D006E02000FFF793FF02E001E070
:106CD00000E0FFE710BD0000582E0020436A0008C6
:106CE000241C00204F6A0008F43100208F1C002073
:106CF000F27D0008B76900087F320020F8310020DB
:106D0000E8300020F430002010B50400E4B2002C7C
:106D100002D000F009FD01E000F000FD10BDF8B563
:106D200007000D0014004E220021102000F002FE8A
:106D300006003472F56077603100072000F0C0FF74
:106D4000F1BD70B505000C0050220021142000F0A8
:106D5000F1FD0600B56034733100072000F0B0FF8C
:106D600070BD1CB504000720019014200090814BD9
:106D7000712281492000FEF7F5FE13BD10B5040015
:106D80002000FEF70FFF10BD7C4981600420704792
:106D900070B504000D00288801280ED002285DD0AF
:106DA0004E2829D04F2822D050280ED068280AD04B
:106DB000692846D071282BD056E0C8212000FEF764
:106DC000F7FE012053E0012051E02E00B0680928B1
:106DD00005D1012000F093FC052069490870336952
:106DE000327BB168674800F064FC01203FE0A8688E
:106DF000C046C04601203AE0297AE86800F065FC08
:106E00001F2300226968200000F0B4FF01202EE05B
:106E10005C4800F0FEFBC8212000FEF7C9FE584880
:106E2000007800280BD056480078401E544908705E
:106E300053480078002802D1002000F060FC0120B7
:106E400015E0262300226968200000F093FF4D48DA
:106E5000C046C0464948A060042008E02000283011
:106E600000F058FD012002E04748A060002070BDFE
:106E700038B504000D002888012808D0022832D037
:106E80004E282ED069282AD0712806D031E0C8219A
:106E90002000FEF78DFE01202EE03A480078002801
:106EA0000AD02523002239480168200000F062FF43
:106EB0003748A06004201FE0324800F096FB3148BC
:106EC0004088002805D02F4841882000FEF770FE3A
:106ED00003E0C8212000FEF76BFE01200CE001203A
:106EE0000AE0012008E02000283000F013FD012016
:106EF00002E02548A060002032BD38B504000D0036
:106F0000288801280AD0022829D04E2825D06828B0
:106F10000AD069281FD0712814D026E0C82120008B
:106F2000FEF746FE012023E016480078002802D133
:106F3000144800F037FB6868144908601548A060E1
:106F4000042015E00F480078002802D00D4800F01A
:106F500060FB01200CE001200AE0012008E0200095
:106F6000283000F0D7FC012002E00748A060002094
:106F700032BD0000082E0020896D0008FB6E00085D
:106F800077320020E8310020B7690008E4310020A2
:106F9000916D0008716E000870B504000E001500B8
:106FA000A56228686062454A3100200001F026FF92
:106FB000040000237122210020002C30FEF710FE77
:106FC0000A22AA49200001F024FF07212000FEF731
:106FD00045FE01203C216054200070BD38B50400FE
:106FE00072220021082000F0A5FC050000222900E3
:106FF00020002368DB68984731BD38B50400732250
:107000000021082000F096FC050000222900200045
:107010002368DB68984731BD0021954A1170002133
:10702000944A11700121944A11700021B94A1170DB
:10703000816A096841627047B749816004207047DE
:1070400070B504000D0026002888012808D0022809
:107050002DD0072806D071280ED0722825D028E020
:10706000012029E085480078002803D1290030005C
:1070700000F026F801201FE0002080490870706AA7
:1070800000684069012809D17B480078002805D0B4
:1070900001221521300000F0C3F904E0706A006895
:1070A0004068FFF73BFD012006E0012004E00120DD
:1070B00002E09A48A060002070BD0000397000080E
:1070C000F8B505000E00A86A80680400002C2AD0DC
:1070D00020687168884224D1A07B002809D0A0686C
:1070E000696A0968884204D0A189280000F0D7F9AC
:1070F00003E028002C3000F00DFC6C22002114204D
:1071000000F018FC0700A068B8607068F860B0680C
:10711000386100223900286A2B6A1B68DB689847AF
:1071200025E02469D2E770682E2803D028002C308F
:1071300000F0F0FB70680A280FD00B2808D0152843
:1071400010D0162813D13100280000F011F80EE0FD
:107150003100280000F01FF809E03100280000F09D
:1071600028F804E03100280000F031F8FFE7F1BD15
:1071700038B504000D00A868022806D0072809D1F8
:10718000A968200000F032F904E00021200000F09E
:1071900095F9FFE731BD38B504000D00A868012856
:1071A00001D0032804D1A968200000F01CF8FFE7F3
:1071B00031BD38B504000D00A868012801D00328AE
:1071C00004D1A968200000F05BF8FFE731BD38B5B5
:1071D00004000D00A868012804D1A968200000F06F
:1071E0009FF8FFE731BD38B504000D00606A006804
:1071F000406900280FD002280DD002D303280AD0FE
:1072000033E01D480078002805D02A000B2120001B
:1072100000F006F929E017480078002808D0606AD5
:10722000001F606213480078401E1249087016E083
:1072300010480078002812D1A06A007900280ED0EA
:10724000606A00680078401E0A490870606A616AD6
:1072500009680978042251434018001F6062606A7F
:1072600000684068FFF75AFCFFE731BD403000205E
:107270008432002085320020901C002086320020BD
:1072800038B504000D00606A0068406900280FD01E
:1072900002280DD002D303280AD039E0BB48007879
:1072A000002805D02A000A21200000F0B9F82FE0BC
:1072B000B7480078616A09680978491E884208DA87
:1072C000606A001D6062B2480078401CB0490870D6
:1072D00018E0606A00680078401EAD49097888426D
:1072E00010D1A06A007900280CD00020A8490870AD
:1072F000606A616A09680978491E0322D2435143D2
:1073000040186062606A00684068FFF707FCFFE7AA
:1073100031BD00008632002041700008B7690008C6
:1073200038B504000D00606A0068C068002813D0FA
:10733000606A00684069022807D12A0015212000F0
:1073400000F06EF8200000F0FEF8200000F07FF85A
:10735000200000F0CCF848E0606A0068406904282A
:1073600005D12A001521200000F05AF83DE0606A9E
:1073700000684069032810D12A001521200000F080
:107380004FF8200000F078F8A06A8189200000F012
:1073900086F801207F49087027E07C4800780028A3
:1073A00014D12A001521200000F03AF8606A006824
:1073B0004069022806D0200000F049F801207349F6
:1073C000087012E0200000F0BEF802E000206F49D3
:1073D000087071480078002802D0200000F04CF8B6
:1073E000606A00684068FFF799FB31BD38B5050059
:1073F0000C00686A00684069002804280FD8002043
:107400006249087064480078002802D0280000F023
:1074100033F8686A00684068FFF780FBFFE731BD1A
:10742000F8B504000F0016006C220021142000F0B3
:1074300081FA0500606A0068A860EF602E61002292
:107440002900206A236A1B68DB689847F1BD10B4E5
:10745000416A524A504B1B7804246343D1504C4933
:1074600009784F4A4C4B1B78D1544B490978491C39
:10747000494A117010BC704747490978491E464A6D
:1074800011704649444A127804235A43895841628C
:107490004349414A1278895C3D4A1170704738B5BA
:1074A00004000D0020002C3000F034FA00222900E6
:1074B00089B220002C3000F0CDFE31BD38B505007A
:1074C0000C0000203149087033480078E4B284424F
:1074D00007D2314800780028F6D02800FFF7CCFF0B
:1074E000F2E7686A00684068FFF718FB31BD10B525
:1074F0000400606A0068C068606200202449087067
:10750000606A00688068022817D000200021080007
:10751000616A09680978C0B288420ED2616A096856
:107520008968002909D01A490978491C184A11703C
:10753000616A091D6162401CEAE7606A0068406890
:10754000FFF7ECFA10BD30B5416A09688968022975
:107550001AD00021436A0E4C24780325ED436C4376
:107560001B191A0000231900436A1B681B78C9B253
:10757000994205D201231468A360121D491CF3E748
:107580000023446A2468A36030BD0000901C0020E2
:10759000853200208632002084320020FC3000201A
:1075A000C431002070B582B00400002203211020F5
:1075B000FEF7B6FB06003100934801F03FFC0022C5
:1075C00005211020FEF7ACFB050029008F48FEF7CF
:1075D000D5FB8F49AC4801F001FE002069460870D8
:1075E00069460320FFF778F973BD10B504002078D1
:1075F00000280CD1A44801F00DFE608060880028AE
:1076000003D101202070012002E0002000E00120D1
:1076100010BD10B50400C046C04600F007F800F0E9
:1076200001F810BD80B500F09EF801BD70B582B0C4
:1076300000240320FFF736F905780020694608701A
:10764000914803F057FE040090480088401C8F4981
:1076500008808E480088062808DAE4B2002C27D07B
:107660008B480088401C8A49088021E088480088AF
:10767000042802DB01206946087068460078EDB2F4
:1076800085420FD0112200210C2000F053F9060092
:1076900068460078307269460320FFF71DF9300014
:1076A00001F0A8F900207949088000207849088075
:1076B00073BDF8B504000E0015001F002A00D2B2F9
:1076C0003100714801F0A1FEF1BD38B504000D0094
:1076D000EDB2002D09D02A00D2B202216A4801F091
:1076E000F7FD012000F026F808E02A00D2B20221BE
:1076F000654801F0EDFD002000F01CF831BD10B52B
:107700000400E4B2002C04D001215F4801F0A0FD88
:1077100003E000215C4801F09BFD10BD80B5002115
:10772000594803F017FE01BD80B50121564803F00A
:1077300011FE01BD10B50400E4B2002C09D055487B
:107740000068C0680078C106C90E5248FEF756FCB2
:1077500008E050480068C0680078C106C90E4D486E
:10776000FEF790FC10BD38B50521274801F0B2FCAA
:10777000050000200400E4B2072C2FD24648E4B2F2
:1077800006216143405A854226DB4348E4B2062184
:10779000614340184088A8421EDBE4B2062C06D1A3
:1077A0000120FFF7C7FF01203C49087013E03B4868
:1077B0000078002805D00020384908700020FFF725
:1077C000B9FF3548E4B20621614340180421415E07
:1077D0002D4801F029FF01E0641CCCE731BD38B52C
:1077E00000250821084801F075FC04002C4884425B
:1077F00002D30020050004E02A48844201D201207F
:1078000005002800C0B232BD843100208C31002038
:107810005431002038B5002400251E480068C06897
:107820000079C106C90E1B48FEF7F0FB002801D005
:10783000012500E00025EDB2002D13D11A48008883
:1078400004281EDB0020184908801848007800280A
:1078500017D00120FFF76EFF01200400002013491C
:1078600008700EE010480088401C0F4908800E4840
:107870000088042805DB04200B49088001200B49FF
:1078800008702000C0B232BDD03000205C32002031
:107890005E3200208C31002038110020753200202B
:1078A000270B0000B708000060320020763200206D
:1078B00070B506000C00150001222900200003F01D
:1078C00029FE70BDF8B504000E00300003F066FE1E
:1078D0000500002D16D0290020002268126990476B
:1078E00072B6A878002809D0E878022803DA472180
:1078F000074800F079FDE878401EE87062B6012084
:10790000070001E0002007003800C0B2F2BD00000F
:107910003040010800B5010072B68A89002A04D0FF
:107920000122100000228A8101E00022100062B6CC
:10793000C0B200BDF4B506000C00002005001948D7
:107940000068854209D2184814216943401880898B
:10795000B6B2B04201D26D1CF1E712480068854210
:1079600003D34621114800F03FFD210089B20E48A3
:1079700014226A43801803F037FE0700002F07D057
:10798000009838802800401CB8700020F87006E08D
:10799000A4B2002C03D15621044800F025FD380084
:1079A000F2BD00BF4C320020302F00202C410108D6
:1079B00010B584B00400C046C0461621954803F0B7
:1079C00037FE1422FA214900934803F03BFE20229F
:1079D000C8218900914803F035FE4422FF21C900E7
:1079E0008F4803F02FFEFEF71EFF8E49AC4800F0D3
:1079F000DBFD002002900020019000200090032376
:107A0000A84A2021A64800F00FFE0222A649A74856
:107A1000FEF704F90020A6490870200080B200F0AB
:107A200003F900F0CDFD04B010BD0021A14A118082
:107A3000A149816004207047F8B504000E00308829
:107A4000012802D06A2806D02AE098492000FFF7D2
:107A500039FF012027E03700388900F07DF83889A8
:107A60009449088092480078002815D127220021E7
:107A70001020FFF75FFF05008E480088A8810022D4
:107A800029008E488D4B1B68DB689847874920008A
:107A9000FFF718FF012006E0A748A060042002E0DD
:107AA000A648A0600020F2BD70B504000E0030882A
:107AB000012806D025282CD026280BD06A2802D0F1
:107AC00046E0012047E0320078492000FFF7F0FE51
:107AD000012040E076480078401E754908707448DF
:107AE0000078002813D1272200211020FFF722FF61
:107AF000050070480088A881002229006F486F4B5C
:107B00001B68DB6898476C48A060042023E00120D4
:107B100021E067480078401E654908706448007895
:107B2000002813D1272200211020FFF703FF0500B2
:107B300060480088A8810022290060485F4B1B68CC
:107B4000DB6898475C48A060042004E0012002E064
:107B50007A48A060002070BD38B504000020050000
:107B6000EDB2062D34D2210089B22800C0B200F057
:107B700041F8002815D14F4801882800C0B200F014
:107B800039F8002822D069218948EDB20C226A43D5
:107B9000805800F01EF846480078401C44490870A0
:107BA00014E0444801882800C0B200F023F80028FF
:107BB0000CD168217E48EDB20C226A43805800F057
:107BC00008F83B480078401C394908706D1CC7E72D
:107BD00031BD70B504000D002A0000210820FFF718
:107BE000A9FE06002E4870603100200080B200F02F
:107BF00067F870BD00B502006D48D2B20C23534344
:107C0000C0180089084201D1002000E0012000BD19
:107C100000000000B02D0020AC2700208C240020A4
:107C2000941C00202B7A000838B504000025ADB262
:107C3000062D17D25E48ADB20C2169434018008969
:107C400020420DD05A48ADB20C216943401840681B
:107C50005749ADB20C226A4389184968096A8847B6
:107C60006D1CE4E700200500ADB2002D17D151488E
:107C7000ADB20C2169434018008920420DD04D4817
:107C8000ADB20C216943401840684A49ADB20C229C
:107C90006A4389184968096A88476D1CE4E731BD61
:107CA00090300020603100209431002024310020E9
:107CB0007932002062320020397A00082C1000202E
:107CC000F8B504000E000025ED43A4B20E2C0EDA28
:107CD00006223749200080B200F072F805003448CF
:107CE0002DB20C21694340184068070013E0A4B28C
:107CF0001F2C10DBA4B2202C0DDA01222D4920000C
:107D000080B200F05DF805002A482DB20C216943CD
:107D10004018406807000022310038003B68DB68EB
:107D20009847F1BD10B50400002221002248224BE3
:107D30001B68DB68984710BDA97A0008B76900087E
:107D400000B500210E22D2B21F2A10DA1B480068AB
:107D5000D040002809D1194800680123934003430B
:107D6000164803601000C0B203E0521CEBE70800A5
:107D7000C0B200BDF8B507000C001600002C0DD0F5
:107D8000009A00210C20FFF7D5FD05006E60AF6062
:107D90000022290020002368DB689847F1BD00B568
:107DA000002801D10D2000E0007F80B200BD00005E
:107DB000643A01080040010890300020F0310020B2
:107DC00010B503000024E4430020040024B292B262
:107DD00094420BDA24B20C20604308589BB29842BC
:107DE00002D1200000B203E0641CEFE70020C04392
:107DF00010BD0A001206130A1A43130C1A4300BFDF
:107E0000094205D0830705D00270401C491EF9D1F4
:107E100070470000130030B414001500103902D36D
:107E200010393CC0FCD2490700D30CC000D504C0B7
:107E3000890002D30280801C002900D5027030BC6A
:107E4000704700000022E5E7010000E0491C0A78C5
:107E5000002AFBD1081A7047F8B504000D0017007E
:107E6000286906003079002803D1E968300000F065
:107E7000E5FFE5614548A0614548606145482061EE
:107E80000020A06001206060276001202073F1BD08
:107E900038B504000020A06100206061002020614E
:107EA0000020A0600020606000202060002020737F
:107EB000E069006905002879002802D0280001F057
:107EC000CAF80020E06131BD33480078704732497C
:107ED0000870704738B504002500E869006901F0B2
:107EE000DFF831BDFEB50600350000200400E4B225
:107EF000E8698068844248D22868E9694969E4B23F
:107F000010226243895888423DD1E8694069E4B251
:107F100010216143401840680290E86900690190AF
:107F20000299019801F0D6F80700E8694069E4B2C7
:107F3000102161434018806869464880E8694069BB
:107F4000E4B2102161434018C068694608803FB21E
:107F50000020C043874218D03FB26846408887421D
:107F60000EDB684600883FB2B84209DB0220706031
:107F70000A480078002805D00120FFF7A8FF01E09B
:107F80000120706001E0641CB1E7F7BDA17F00082B
:107F9000D57E0008E57E0008743200207E32002085
:107FA000F0B583B006003500E86900690090002054
:107FB0000400E4B2E869806884421AD22868E9695A
:107FC0004969E4B210226243895888420FD1E869B6
:107FD0004069E4B210216143401840680190019962
:107FE000009801F077F807003FB2380003E0641C06
:107FF000DFE70020C043FEBDF446002804D4494218
:1080000000F013F8404260474042002905D45FD099
:1080100000F00BF8404249426047494200F005F841
:108020004942604703460B43E6D40022030A8B42D1
:108030000BD203098B4219D243088B422ED2411A2C
:1080400000D20146524110467047FF2209023FD03C
:1080500012068B4205D3121209028B4201D312126F
:10806000090203098B4219D300E0090AC3098B42B4
:1080700001D3CB01C01A524183098B4201D38B013A
:10808000C01A524143098B4201D34B01C01A5241DD
:1080900003098B4201D30B01C01A5241C3088B4222
:1080A00001D3CB00C01A524183088B4201D38B000D
:1080B000C01A524143088B4201D34B00C01A5241AF
:1080C000884200D3401A5241CFD201461046704731
:1080D00008B5C046C04608BD9D21020008D5F4463B
:1080E000524200F005F80122D20710436047000019
:1080F0000AD002D4491E9218FCD5C905100A1206EE
:10810000524100D3012A4841704730B405004D4028
:108110000122D20715404B180418240E28D01B0E3C
:108120002FD0FF2C34D0FF2B37D0E41A00020902E5
:108130001043114343084808D10D1B1A02D2641E94
:10814000DB181B18DB18834200D31B1A4941F9D3F3
:108150007F3426DDFE2C08DAE4054808C9071943F8
:1081600091416041284330BC7047FF20C005F9E7CA
:1081700028001B0E03D0FF2BF5D14902F3D0D043CA
:10818000F1E7FF2C01D14002F9D1FF20C005E9E75A
:108190004002F4D1FF2BF8D1F1E728004902E2D0E8
:1081A000EDE70B0200202442DCD15B129B1CD9D9E5
:1081B000D805D7E7012212060118CA420AD28A421C
:1081C0000DD83822120609098918C20FD2071143A7
:1081D0004007704700D049080909014301E0C10F79
:1081E000C90700207047010008B410B585B007AB7F
:1081F000039300240294002902D10094019402E028
:108200000090491E019103AB6946084878441C3030
:1082100003F052FA0099002900D00C70002800D415
:10822000029805B0019910BC02B0084701BC0000DB
:1082300001E0401C491C0A780378934203D1002BCB
:10824000F7D10020704702D20020C04370470120C0
:1082500070470000F4B504000D00E0784606760E85
:10826000A789A06800280BD0BFB2002F08D1ADB2FB
:10827000002D05D0F6B2022E02DA2088042803DA97
:108280003B210F4800F0B0F872B6A581684600881F
:10829000E081E078000610D4E07880210143E170AD
:1082A0000848F6B2102171434018806860600548A4
:1082B000F6B2102171434018846062B6F1BD00BF70
:1082C0005C410108B0300020F0B5002822D56C4B8D
:1082D0000207120F083A1500AD0804225543684AF8
:1082E0000407240F083CA408042674431259FF24F1
:1082F0000600B607B60F08277E43B440A2438C01A0
:10830000E4B20600B707BF0F08267743BC4014430A
:108310005C511CE0864A03009B0804246343D25846
:10832000FF230400A407A40F08256C43A3409A432D
:108330008B01DBB20400A407A40F08256C43A34003
:1083400013437B4A0400A40804256C431351F0BD79
:1083500000B5BFF34F8F4B4876490860BFF34F8F8E
:10836000FEE710B5040080204004844201D30120C0
:1083700010E02002000A401E43490860032100204B
:10838000C043FFF7A1FF00206849086007206A4941
:108390000860002010BD00B5FEE780B500216E48E2
:1083A00000F022F8FEE700B5FEE700B5FEE780B575
:1083B000002004F0E1F869480068401C6749086043
:1083C00001BD80B500F062F865480068FA218900B7
:1083D000FFF72BFEFFF7C5FF002800D0FEE701BD29
:1083E00080B5FFF7EEFF01BD38B505000C005D4814
:1083F0000078002804D101205A49087000F004F8E0
:10840000FEE756480068704780B572B6FFF7A0FFD8
:1084100001BD80B554480068012101435248016004
:108420005248006852490140504801604E48006877
:10843000504901404C4801604B4800684E4901409A
:1084400049480160494800684C490140474801607B
:108450004B4800680F218843494908604948006833
:108460004949014047480160484800680121884364
:108470004649086000204649086000F05FF801BDE9
:108480001CED00E00400FA0514E000E0F8B500255A
:10849000002400270026C046C046344800680C214E
:1084A00001400D002800002804D0042806D0082828
:1084B00008D02AE037482A49086029E03648284988
:1084C000086025E029480068F021890301400C007C
:1084D000264800688021490208400700A40CA41C1B
:1084E000002F04D12D4860431D4908600CE024484A
:1084F00000680007000F401C060027483100FFF706
:1085000094FD60431649086002E02248144908605F
:1085100016480068224900090007000F085C0500A2
:108520000F480068E8400E490860F1BD18E000E01F
:1085300000E400E00CED00E010E000E082B000207C
:108540000190002000900848006816490143064841
:10855000016002B070470000D83E0108EC310020F5
:10856000741C0020783200200010024004100240E9
:108570000CB8FFF8FFFFF6FEFFFFFBFFFFFFC0FF99
:108580002C10024030100240ACFEFFFF34100240BD
:108590000810024000127A000080BB0000093D0074
:1085A000001800200100010038B505000C00210072
:1085B000280004F03FF80148286031BD143F01084D
:1085C00070B5C046C04672B629480078002828D049
:1085D0002748007800280ED0264825490978405CB5
:1085E000401E050023482249EDB249194978405CF4
:1085F000E900451801E0002005001F48EDB2042104
:1086000069434058040062B6200004F077F8060081
:1086100031002000226852689047300004F0C0F812
:10862000D1E762B6C046CEE7FEB504000D00089F54
:108630000A9EEDB2002D04D0EDB2212D01DA002FFB
:1086400003D07F210D48FFF7CFFE029AD2B20199E5
:1086500020000C30FDF7E2FA2577200004F0C8F87E
:1086600031002000226812689047F7BD000000002A
:10867000783100200C360108AC2C00208440010821
:1086800010B50400200004F0CFF810BD05490968BA
:1086900010229143034A1160024909680143014ACB
:1086A0001160704730100240FCB504000025002620
:1086B00000200190002000900027644800680C21F1
:1086C00001400D002800002804D0042805D0082807
:1086D00006D027E06148206026E05E48206023E065
:1086E0005A480068F021890301400E00574800688D
:1086F0008021490208400190B60CB61C0198002860
:1087000003D15548704320600BE0554800680007CE
:10871000000F401C00904F480099FFF786FC704303
:10872000206001E04D48206048480068F021014089
:108730000D002D094B48405D07002068F84060603F
:1087400042480068E021C90001400D002D0A45485B
:10875000405D07006068F840A0603D480068C005C3
:1087600002D44148E0600AE038480068400403D47D
:10877000A0684008E06002E0A0688008E06034483B
:108780000068400602D43948206102E080200002DF
:1087900020612F480068C00602D43048606101E0C3
:1087A000206860612A4800688007800F002802D195
:1087B000A068A0611AE0264800688007800F0128A1
:1087C00002D12068A06111E0214800688007800F75
:1087D000022803D180200002A06107E01C48006845
:1087E0008007800F032801D11C48A061F3BD00B5AC
:1087F000002905D01E4A126802431D4B1A6004E08E
:108800001B4A126882431A4B1A6000BD00B500294A
:1088100005D0184A12680243164B1A6004E0154A44
:1088200012688243134B1A6000BD00B5002905D0C1
:10883000114A12680243104B1A6004E00E4A126893
:1088400082430D4B1A6000BD00000000041002407E
:10885000301002400080BB0000093D0000127A0089
:108860002C10024040180020809FD500128000008C
:1088700014100240181002401C100240F0B50022F3
:108880000023002400252A00102A56D201259540F5
:108890002B000D681D402C009C424CD14D68012DD1
:1088A00002D04D68022D1ED186680327BC461500F4
:1088B00002277D436746AF40BE43866086688F6867
:1088C000BC46150002277D436746AF4037438760AB
:1088D000858801269640B54385808588CE68B6B2E6
:1088E00096402E43868006680327BC461500022763
:1088F0007D436746AF40BE43066006684F68BC468E
:10890000150002277D436746AF4037430760C668BE
:108910000327BC46150002277D436746AF40BE4390
:10892000C660C6680F69BC46150002277D436746CE
:10893000AF403743C760521CA6E7F0BD00B5020048
:108940000020138A89B20B40002B02D001231800AB
:1089500001E000231800C0B200BD00B5002A02D01B
:1089600089B2816100E0018500BDF8B400230024D4
:10897000D2B20D006D076D0F042675431600AE4090
:10898000330089B20D00ED1004267543451900959A
:1089900089B20D00ED100426754345192F6A0F2585
:1089A000AC460D006E07760F04256E436546B54054
:1089B000AF43009D2F6289B20D00ED100426754370
:1089C00045192D6A1D432C0089B20D00ED100426B7
:1089D000754345192C62F1BC704770B505000C0059
:1089E00060680A2804D12E00300003F03FFFFFE743
:1089F00070BDAA00F8B5070038882649096889B211
:108A0000884203D338212448FFF7EEFC72B6B878C9
:108A1000002802D0F878401CF87062B604256D1E5C
:108A20001E480068398804224A438018405D0600C9
:108A3000F6B2002E27D01A48F6B2845D31001948EC
:108A4000E4B2065D0E402800C00024181648E4B2C7
:108A5000042161434058002803D15F210E48FFF7ED
:108A6000C3FC002239001048E4B204236343C05819
:108A700084460D4BE4B20420604318580068C36874
:108A800060469847D4E7002DC9D1380003F088FE2E
:108A9000F1BD00BF54320020484001085032002090
:108AA0000C360108383B0108AC2C002038B5040016
:108AB000A348206000210E20FDF710F905002900D1
:108AC0009F48FDF75BF9200000F013F931BDF8B5C0
:108AD00004000F0016003100C9B2200000F077F941
