:020000040800F2
:10300000403B0020416801087B8C00087F8C000851
:1030100000000000000000000000000000000000B0
:103020000000000000000000000000008B8C000881
:1030300000000000000000008F8C0008938C000846
:10304000539B0008E7C2000877D2000833DC000871
:10305000D7E0000857E200084FE800084FEE0008EC
:103060008BF90008DFF900087BFE0008470C010817
:103070006D9E000813130108B3140108D31501084D
:10308000132201087348010800000000E3600108F2
:103090006F6601087B6601087D6A01087F6A010886
:1030A000816A0108836A0108856A0108013F0108F5
:1030B000F53F0108876A0108896A0108598E0008EE
:1030C0001CB50400774878487848794879487A48A8
:1030D0007A487B481F2001900A200090794B71228A
:1030E0007949200003F020F80023722221002000FB
:1030F0003C3003F057F802227449754803F070F829
:103100000721200003F08CF81421200003F088F838
:103110001021200003F084F813BD10B50400200036
:1031200003F022F810BD70B582B004000D0001203C
:103130006946087000210F2003F0B2F80600310044
:10314000644803F0FDF863480068C068007AC1066F
:10315000C90E604803F034FA002002F0E6FC0520B6
:1031600003F08DFE5C4908606946022003F0A2FE70
:1031700000205A49087002F031FC5948A060042030
:1031800076BDF0B583B004000D00009428880128B6
:1031900008D0022873D010281CD0272808D0722805
:1031A0001ED07BE00821009800F0B2FE012078E0FC
:1031B0002E00B089082804D10121009800F0A8FE53
:1031C00006E0B089012803D10A21009802F0B8FB7B
:1031D000012066E02900200002F060FF012060E08D
:1031E000042003F036FE002830D0082003F031FE22
:1031F00000282BD0092003F02CFE002826D00A201E
:1032000003F027FE002821D0042003F038FE3549C2
:1032100008603448006802F0ACFB02F0D1F83420BA
:10322000019030480668304F019A3100380003F0B1
:10323000A7FE200001F088F8FA21C900009802F0EA
:103240007FFBAB48006802280DDA05E00A210098F0
:1032500002F076FB012024E0A5480068401CA44948
:10326000086001201DE0012002F05FFC0022052122
:10327000200003F0BEFE9F48A060042011E0200063
:1032800002F006F800209A4908609B48006801F0A7
:103290003DFD200002F080FE012002E09748A06082
:1032A0000020FEBD00BC010880BC010800BD010873
:1032B00080BD010800BE010810BE010820BE010843
:1032C00030BE01086034002027310008503600204D
:1032D000B035002040360020C03600204C3300209E
:1032E00083310008BC3600208C330020F8B5040080
:1032F0000D0000942888401E14D0401E00D1C5E067
:10330000401F3DD0093857D05C3800D1A9E0801F5C
:1033100058D07E38012800D8A3E0C01E012800D86C
:103320009FE0E1E0764E002076490860002002F040
:10333000FCFB75480068C068007AC106C90E724877
:1033400003F082F901220521200003F052FE6F48AC
:1033500003F0AEFFFA21C900009802F0F1FA02F082
:10336000FDFB6B480078002808D004F018FB01280A
:1033700004D114223100200004F0DFFB0120B6E06C
:103380002E0063480078002814D162480021405E76
:10339000002804D05F480021405E01280AD1B068AF
:1033A000062807D13221022002F085FB5A48A0608E
:1033B00004209CE001209AE02900200002F06EFE2B
:1033C000012094E0032003F05AFD077804F070FE1A
:1033D00006004F480078002807D04D4801782000AB
:1033E00002F0C9FB00204A490870FFB2002F10D03C
:1033F0004A480079002808D146480021405E01284B
:1034000018D03C48A060042071E0002043490860C7
:1034100010E04248007900280CD040480068401C69
:103420003E4908603D4800683D49884202D300207B
:103430003A49087137480021405E012804D03548D8
:103440000021405E002806D1F6B2002E03D02948A4
:10345000A06004204BE00A21009802F071FA0120DC
:1034600045E02C480021405E002804D02948002176
:10347000405E012808D12A002A49200004F08AFE73
:103480001C48A060042032E0012030E000201849F0
:10349000086000983C3004F0AFFE01F091FF20007E
:1034A00001F0F6FE1448006801F030FC200002F044
:1034B00073FD02F058FB00220521200003F099FD66
:1034C000012002F032FB10480068C068007AC10693
:1034D000C90E0D4803F074F8002010490860002060
:1034E0000E490871012002E00448A0600020F2BDEE
:1034F000C836002029350008941B00207B6F000887
:1035000007070000AC3600204036002010330020B2
:10351000393700201E3700203D3C00084836002087
:1035200021030000B0350020F2B586B004000394FA
:103530000026022003F0A3FC06000698008801285C
:1035400023D0022800D156E3072800D1D2E010286A
:1035500000D1C5E01F282FD06C2800D1C0E271280F
:1035600000D168E1F02800D13DE2F12800D15FE20E
:10357000F32800D184E2F42800D194E2FA2826D07E
:10358000FC2839D0FE2871D03EE30020BE490860F7
:103590000020BE4908600020BD4908700A21039838
:1035A00002F0E8FDBB49200004F0FEFD02F091FAB4
:1035B00001F062FD01202AE3B7480068C068007A84
:1035C000C106C90EB44802F0FBFF01201FE3FB2235
:1035D0000021082004F020FE05002900052004F049
:1035E000E1FF0021002002F066FA0120C7490870BF
:1035F000C748A06004200AE3FD220021142004F043
:103600000BFE05000A2069460870684600780490A1
:10361000002002902F000937029A0499380005F023
:103620005BF8BC480190019805F080F8694609787C
:10363000814202D26846007802E0019805F076F8EF
:103640002872287A0490019802902F000937049A72
:103650000299380003F094FC2900052004F0A2FF31
:103660002900042004F09EFF0120D0E2FF22002167
:103670001C2004F0D1FD0500102069460870684642
:1036800000780490002002902F000937029A0499D4
:10369000380005F021F8B5480190019805F046F88A
:1036A00069460978814202D26846007802E00198B2
:1036B00005F03CF82872287A0490019802902F00B7
:1036C0000937049A0299380003F05AFC29000520B2
:1036D00004F068FF2900042004F064FF012096E252
:1036E0000699200002F0DAFC0121200002F018FC0B
:1036F00001208CE2069D0020634908600020634998
:1037000008600020624908702900039802F065FAF9
:103710006868232808D1C34803F0E8FD02F0B2F836
:10372000C148A060042072E26868332813D1A868F9
:10373000042810D104F033F901280AD1022073497A
:1037400008700021002002F0B6F97148A060042042
:103750005DE201205BE268682E281BD1A868012881
:1037600018D13078002809D0200002F02BFC00206E
:1037700030703100022003F09DFB54E001203070D6
:103780003100022003F096FBA8480168200002F0F7
:103790002BFC48E068682E2845D06868302813D193
:1037A000012030703100022003F084FB002005F07E
:1037B00000F80120C8490870FA20C000C749086015
:1037C0000120D24908702EE068682F2825D10120F9
:1037D00030703100022003F06DFBCD4800780028E6
:1037E0000DD1012002F0C4F90120BB490870FA2074
:1037F000C000BA4908600120C449087013E00020E5
:1038000002F0B6F90120B4490870FA20C000B349AB
:1038100008600120BD49087005E0012030703100CA
:10382000022003F047FB01F01DFC0A21039802F07F
:10383000A1FC0120EBE114480068401C124908601B
:1038400000F093FD01F0E9FCC2480021405E002831
:1038500004D10E480068C04988420AD2BD48002100
:10386000405E01281AD109480068FA21890088427F
:1038700014D301F0F7FBFA21C900002002F01BF974
:103880002348A0600420C2E1A8360020AC36002006
:1038900033370020B0350020403600208F480068C4
:1038A000002804D08D4800680A388C490860AB486D
:1038B0000021415EFA20800048430A2105F024F8E7
:1038C000A7490968814204D3A4480021405E00282A
:1038D00003D1824800680A285FD18C48007800280C
:1038E00008D000208949087050480168200002F083
:1038F0007BFB52E0C7480021405E01280CD120002C
:1039000002F060FB00209649086046E0393700204D
:103910003D3C000884690108BE480021405E022841
:1039200026D1BD480068401CBB490860BA48006801
:10393000C82832D30020B8490860B848B849096897
:1039400009225143401802F0EFF8B54800680028FA
:1039500003D10120B24908601FE0B1480068012886
:103960001BD10020AE49086017E000BF8068010845
:10397000A8480021405E00280FD1AA480078AA4933
:1039800009780143C9B2002907D101F0E5F9200007
:1039900002F018FB0120A3490870A4480068002821
:1039A00004D0A2480068401EA0490860A0480068F2
:1039B000002804D09E480068401E9D4908609D482C
:1039C0000088401C9B4908809A4800880B2804DB2B
:1039D00000209849088004F08BFB0A21039802F02C
:1039E000C9FB012013E1069D00205D49086000200D
:1039F0009149086000208B49087001203070310027
:103A0000022003F057FA2900200001F0C7FB01F063
:103A100029FB01F031FB00F0A8FC01F033FF01208D
:103A2000F5E000BF10330020253D0008941B002066
:103A3000069DA868042816D1A86803F020FA07009C
:103A4000AB89EA89A968009101920293A8890221B1
:103A500004F05AFF022148433818029B019A00994A
:103A600001F0ADFE0AE0A86803F009FA0700AB898F
:103A7000EA89A968A889381801F0A1FE0120C6E0EA
:103A8000069D287A01F09DFC01F0FCFE01203070BB
:103A90003100022003F00EFA200002F093FA9D4854
:103AA000A0600420B3E0F5220021402004F0B4FB24
:103AB00005000F200190984800902F000A37019AC6
:103AC0000099380003F05CFA0F20288129000520B6
:103AD00004F068FD01209AE032370020B83600205B
:103AE0000027069DA968200002F07EFAA8680069F8
:103AF00032280FD1894803F0DBFB884803F0F6FB3E
:103B000001F0C0FE8648A060042080E03437002029
:103B1000313700202900200000F054FA002805D198
:103B20002900200000F0F2FA00281BD0A868B04954
:103B3000884203D0A868AF49884203D1AE4920002B
:103B400002F09EF80121200002F0EAF901F09AFE4D
:103B500001205CE01E370020E0A50100A61B00202C
:103B6000A83600202900200000F092FA002803D097
:103B700001F088FE01204AE02869012802D0286966
:103B8000032830D1A868006901F0FBF8070039006C
:103B9000C9B2280000F02EFD3A00D2B2A968200078
:103BA00001F0DBF8A86801F0B1F8A968200002F084
:103BB00067F8E868042802D0E868052801D10120E8
:103BC00025E0FFB202237B439BB2022204218C46F4
:103BD000A4480168FFB2022078430818614601F04A
:103BE000EEFD01F04FFE012030703100022003F0A5
:103BF00061F901200BE0002009490860200028300D
:103C000004F0FAFA012002E09748A060002007B013
:103C1000F0BD000020370020901B00203067010815
:103C2000C83600203337002038370020B036002057
:103C3000B43600201C370020AC36002070B50400DC
:103C40000D0026002888401E11D0401E50D0401F75
:103C500017D0093817D05C381BD0401F0FD0401E3A
:103C600022D07E38012814D9001F12D046E0A34884
:103C7000416889B2300001F063FE012049E0012073
:103C800047E0012045E02900200002F007FA01206A
:103C90003FE09A480068022804D12A009849200091
:103CA00004F078FA012034E09448006800280AD132
:103CB000200002F087F90021200002F031F991483C
:103CC000A060042025E08D480068012806D120006E
:103CD00002F078F98C48A06004201AE08748006858
:103CE000022803D18948A060042012E0012010E0DE
:103CF00030003C3004F080FA01200AE07F48006880
:103D0000032803D18148A060042002E05648A06047
:103D1000002070BD6D3E00081068010810330020BF
:103D2000253D000870B504000D00260028880128F4
:103D300006D0022836D010281AD072281ED052E0A1
:103D4000002001F0F2FE00209C49087001220521AC
:103D5000200003F04EF9FA21C900300001F0F0FD17
:103D6000200000F0EDF9200000F0EEFA01203DE027
:103D70002900200002F092F9012037E09048006805
:103D800002280BDAFA21C900300001F0D9FD8C4875
:103D90000068401C8A490860012027E05B48A06059
:103DA000042023E0002086490860B74803F09EFA0B
:103DB000200001F06DFAB548006800F0A7FF200070
:103DC00002F000F9200002F0E7F8002205212000AF
:103DD00003F00FF9012001F0A8FE30003C3004F0A0
:103DE0000BFA012002E02048A060002070BD000016
:103DF0007C120020641200209412002038B50400C8
:103E00000D002888012804D0022819D007280AD0DC
:103E100024E0002001F089FE01220521200003F0AA
:103E2000E8F801201DE029008868012806D14868CB
:103E3000102803D1B448A060042012E0012010E053
:103E4000012001F072FE00220521200003F0D1F8CC
:103E50002000283004F0D0F9012002E00248A060E0
:103E6000002032BDBC3600207B6F000870B5040016
:103E70000D0026002888401E12D0401E33D0401F5F
:103E800017D018381ED04D3813D0401F0FD0401E09
:103E900018D07E3801280CD9C01E012809D928E085
:103EA000FA218900300001F04BFD012024E00120BF
:103EB00022E02A001249200004F06CF91348A060A7
:103EC000042019E0704803F011FA200001F0E0F935
:103ED0006E48006800F01AFF200002F05DF80B4801
:103EE000A060042008E030003C3004F085F9012097
:103EF00002E0B048A060002070BD0000701B0020F0
:103F0000B0350020ED320008FD3D000829350008DD
:103F100070B505000C006A2200210C2004F07CF929
:103F2000060075603481300004F06EFB70BDF0B5A2
:103F300083B004000825A04EA04F2A0031003800AD
:103F400003F01EF89E4864B21421614340180A2110
:103F5000405E0A281DDA9B48006864B20221614372
:103F6000405E04F02BFD984904F041FD04F094FDFF
:103F700000900191924864B2142161434018026993
:103F80000A218E4804F0A2FD200040B201F050FD4D
:103F900013E08C48006864B202216143405E0A214C
:103FA00004F0B2FC0300864864B214216143401857
:103FB00002690A21814804F089FDF7BD31370020EC
:103FC000C8360020F8B507000C000126A06800697B
:103FD000192804D053D31B2801D02AD34FE0A0685E
:103FE000006900F0CEFE05002900C9B2200000F0F3
:103FF00001FB00F0BAF9A0680069192804D1280073
:10400000C0B200F075F903E02800C0B200F086F9F4
:10401000EDB202236B439BB2022204218C46694815
:104020000168EDB2022068430818614601F0C7FB41
:1040300027E0A068006900F0A4FE05002900C9B2CD
:10404000200000F0D7FA00F090F9A8480021405E67
:10405000002803D0280040B2FFF769FFEDB2022329
:104060006B439BB2022204218C4656480168EDB294
:10407000022068430818614601F0A1FB01E000201E
:1040800006003000C0B2F2BD10330020941B0020A7
:10409000F8B507000E0001240C25F068292804D08B
:1040A0000CD32B2807D003D308E00520050005E03A
:1040B0000620050002E007200500FFE7306904281C
:1040C00009D10C2D07D03F480168280002F0F2FE0C
:1040D0002000C0B216E00C2D05D03069072802D0B0
:1040E0002000C0B20EE0B06800690E38062805D87E
:1040F000B0680169380000F031FF01E000200400E1
:104100002000C0B2F2BD00008331000870B5060087
:104110000C000125A06800691D380B2802D916384B
:1041200006D008E0A0680169300000F07DFE04E0E0
:104130002800C0B203E0002005002800C0B270BD16
:1041400038B504000025002005006DB21A2D0DD2EF
:104150001B486DB214216943401800891949096848
:104160006DB202226A4388526D1CEEE71548016861
:10417000042002F09FFE9949052002F09BFE984919
:10418000062002F097FE9749072002F093FE964919
:10419000082002F08FFE9549092002F08BFEB449F9
:1041A0000A2002F087FE00F067FF042001F075FC92
:1041B00031BD00007B6F00081C1A0020F83500207C
:1041C00080540108BC3600200000204170B5060074
:1041D0000C00A848E4B21421614340580500292D81
:1041E0000ADB2F2D08DAA348E4B2142161434158B9
:1041F000300000F0DBFD77E00E2D0ADB152D08DA2C
:104200009C48E4B2142161434158300000F0A6FEFE
:1042100050E01B2D08D12000C0B200F07FF8012132
:10422000300001F07DFE45E0192D04D12000C0B220
:1042300000F05EF83EE01A2D0CD1AF480068E4B201
:1042400002216143405E002834D0200040B2FFF7D5
:104250006EFE2FE0382D09D1A7480068E4B2022194
:104260006143405E0A2104F04FFB23E0042D0DD191
:104270002000C0B201F034FC01217E48E4B21422D7
:1042800062438018C06802F0C6FE2DE0172D04D1ED
:104290009A49300001F0F4FC0CE0002D04D1B24941
:1042A000300001F0EDFC05E0362D03D1AF493000C0
:1042B00001F0E6FC6F48E4B2142161434018C06885
:1042C0000F2811D001216B48E4B2142262438018F8
:1042D000C06802F0A0FE200040B2FFF728FE362D95
:1042E00002D11B20BB49C87170BD0000A61B002075
:1042F00010B5040080480068E4B202216143405ECA
:104300000A2104F001FB00B2002803D0022802D0E9
:1043100002D302E001E000E0FFE710BD10B50400A9
:1043200075480068E4B202216143405E0A2104F04E
:10433000EBFA00B2002803D0022803D001D302E038
:1043400001E000E0FFE710BD10B5040000F00DF83B
:1043500001230322A049200000F04AF8002305228F
:104360009E49200000F044F810BD30B5002400251F
:104370000020040064B2042C23D2002005006DB29A
:104380001A2D1CD2964864B208216143405839491D
:104390006DB214226A43895888420ED1564800688B
:1043A0006DB202216943405E0A2104F0ADFA8C49E6
:1043B00064B208226243891888806D1CDFE7641CA0
:1043C000D8E787488088874908808548808986495A
:1043D00008808348808A8549088030BD04640108CC
:1043E000386401086C6401088C6801089868010849
:1043F000FDB50F000025002400200500280040B274
:104400006946097900B209B288422FDA0020040017
:1044100064B21A2C28D26DB2082068433858154966
:1044200064B214226243895888421BD1012668462F
:10443000007A00280CD13048006864B20221614340
:10444000405E0A2104F060FA002801D10020060035
:104450003100C9B26DB2082068433818406802F0D4
:10446000DAFD01E0641CD3E76D1CC7E7F7BD00006F
:10447000A46801088054010800B51F490968C0B24A
:1044800002224243895E9B225200891A02D05A3985
:1044900008D010E0FA21184A1268C0B20223434340
:1044A000D15208E09B214900134A1268C0B202238E
:1044B0004343D152FFE700BD00B50F490968C0B2C0
:1044C00002224243895EFA3902D03C3909D011E018
:1044D0009B214900084A1268C0B202234343D152CB
:1044E00008E0C8214900044A1268C0B202234343CD
:1044F000D152FFE700BD0000BC360020341200207E
:1045000000B53B490968C0B202224243895EC839FE
:1045100006D014390CD01E3912D01E3919D021E022
:10452000DC21334A1268C0B202234343D15219E05E
:10453000FA212F4A1268C0B202234343D15211E03C
:104540008C2149002A4A1268C0B202234343D15247
:1045500008E096214900264A1268C0B2022343436C
:10456000D152FFE700BD0000941200200415002086
:1045700000B51F490968C0B202224243895EDC3996
:1045800006D01E390CD01E3912D0143918D020E0B4
:10459000C821174A1268C0B202234343D15218E01F
:1045A000DC21134A1268C0B202234343D15210E007
:1045B000FA210F4A1268C0B202234343D15208E0E5
:1045C0008C2149000A4A1268C0B202234343D152E7
:1045D000FFE700BDF8350020C46601082865010822
:1045E0007411002020370020A61B00201E37002059
:1045F000BC36002070B506000C00F068012800D120
:1046000066E3042800D140E3052800D11AE30A2814
:1046100000D181E10B2806D0272800D135E32828D6
:1046200000D10FE36CE3B0680069342804D12000A6
:10463000C0B2FFF741FF68E3B0680069052807D002
:10464000B0680069082803D0B06800690B280ED153
:1046500090480068E4B202216143405E962149001F
:10466000884204DA2000C0B2FFF74AFF4DE3B06889
:104670000069172820D100200500EDB22D2D1AD297
:1046800084480068E4B202216143405EC249EDB251
:1046900002226A43895E88420BDABF48EDB20221EA
:1046A0006943405A7B490968E4B202226243885256
:1046B00001E06D1CE1E723E3B0680069002820D128
:1046C00000200500EDB2292D1AD272480068E4B22C
:1046D00002216143405EC749EDB202226A43895E0E
:1046E00088420BDAC348EDB202216943405A694956
:1046F0000968E4B202226243885201E06D1CE1E7DE
:10470000FEE2B0680069362820D100200500EDB235
:104710002D2D1AD25F480068E4B202216143405E49
:10472000CB49EDB202226A43895E88420BDAC8485F
:10473000EDB202216943405A56490968E4B20222A7
:104740006243885201E06D1CE1E7D9E251480068FC
:10475000E4B202216143405EBE49E4B214226243E6
:1047600089180622895E884213DA4A480068E4B252
:1047700002216143405AB749E4B2142262438918C6
:104780004989401843490968E4B2022262438852C9
:10479000C1E0B068006919281BD13E480068E4B246
:1047A00002216143405EAB49E4B21422624389189E
:1047B0000622895E88420CD1A648E4B214216143E6
:1047C0004018808833490968E4B202226243885263
:1047D000A1E0B06800691B281BD12E480068E4B234
:1047E00002216143405E9B49E4B21422624389186E
:1047F0000622895E88420CD19648E4B214216143B6
:104800004018808823490968E4B202226243885232
:1048100081E0B068006904281BD11E480068E4B23A
:1048200002216143405E8B49E4B21422624389183D
:104830000622895E88420CD18648E4B21421614385
:104840004018808813490968E4B202226243885202
:1048500061E0B068006904281ED10E480068E4B227
:1048600002216143405E7B49E4B21422624389180D
:104870000622895E88420FD17648E4B21421614352
:104880004018808803490968E4B2022262438852D2
:1048900041E000BFBC360020B06800691C281BD175
:1048A00097480068E4B202216143405E6949E4B27E
:1048B0001422624389180622895E88420CD1654819
:1048C000E4B214216143401880888D490968E4B23C
:1048D0000222624388521EE0B06800691C281AD187
:1048E00087480068E4B202216143405E5949E4B25E
:1048F0001422624389180622895E88420BD15548EA
:10490000E4B214216143401880887D490968E4B20B
:10491000022262438852F3E1B0680069342804D16E
:104920002000C0B2FFF7A8FDEFE1B06800690528DC
:1049300007D0B0680069082803D0B06800690B2868
:104940000ED16F480068E4B202216143405EFF214E
:104950002E31884204DA2000C0B2FFF709FED4E10C
:10496000B0680069172829D12D200500EDB2002D6F
:1049700023D00948EDB2022169434018801E00216E
:10498000405E5F490968E4B202226243895E884260
:1049900011DA014802E000BF44610108EDB20221D2
:1049A00069434018801E008855490968E4B2022214
:1049B0006243885201E06D1ED8E7A1E1B06800694A
:1049C000002829D129200500EDB2002D23D0094867
:1049D000EDB2022169434018801E0021405E484923
:1049E0000968E4B202226243895E884211DA014812
:1049F00002E000BF50620108EDB202216943401895
:104A0000801E00883E490968E4B20222624388524F
:104A100001E06D1ED8E773E1B068006936282BD13C
:104A20002D200500EDB2002D25D00948EDB2022160
:104A300069434018801E0021405E31490968E4B294
:104A400002226243895E884213DA014804E000BF13
:104A5000A061010880540108EDB2022169434018A9
:104A6000801E008826490968E4B202226243885207
:104A700001E06D1ED6E743E1CB48E4B21421614367
:104A800040180421405E1E490968E4B202226243D4
:104A9000895E884213DA1A480068E4B20221614351
:104AA000405AC149E4B21422624389184989401A24
:104AB00013490968E4B2022262438852C1E0B06837
:104AC000006919281ED10E480068E4B20221614332
:104AD000405EB549E4B21422624389180422895E1B
:104AE00088420FD1B048E4B2142161434018C08815
:104AF00003490968E4B2022262438852A1E000BF80
:104B0000BC360020B06800691B281BD1C54800686E
:104B1000E4B202216143405EA349E4B2142262433D
:104B200089180422895E88420CD19F48E4B214217E
:104B300061434018C088BB490968E4B2022262435D
:104B400088527EE0B068006904281BD1B54800682F
:104B5000E4B202216143405E9349E4B2142262430D
:104B600089180422895E88420CD18F48E4B214214E
:104B700061434018C088AB490968E4B2022262432D
:104B800088525EE0B068006904281BD1A54800681F
:104B9000E4B202216143405E8349E4B214226243DD
:104BA00089180422895E88420CD17F48E4B214211E
:104BB00061434018C0889B490968E4B202226243FD
:104BC00088523EE0B06800691C281BD195480068F7
:104BD000E4B202216143405E7349E4B214226243AD
:104BE00089180422895E88420CD16F48E4B21421EE
:104BF00061434018C0888B490968E4B202226243CD
:104C000088521EE0B06800691C281AD185480068E7
:104C1000E4B202216143405E6349E4B2142262437C
:104C200089180422895E88420BD15F48E4B21421BE
:104C300061434018C0887B490968E4B2022262439C
:104C400088525DE077480068E4B202216143405E2B
:104C50005549E4B21422624389180622895E8842CB
:104C600012DA70480068E4B202216143405A4E49AA
:104C7000E4B21422624389184989401869490968D5
:104C8000E4B20222624388523AE04748E4B2142177
:104C9000614340180421405E62490968E4B202227F
:104CA0006243895E884212DA5E480068E4B20221FB
:104CB0006143405A3C49E4B214226243891849894D
:104CC000401A58490968E4B202226243885217E048
:104CD00054480068E4B202216143405E002807D1D5
:104CE000142050490968E4B202226243885206E067
:104CF00000204C490968E4B2022262438852FFE76F
:104D000048480168042002F0D5F870BD38B50400A9
:104D10006069002802D0012801D01CE01BE00025BA
:104D2000206900F02EF805002069042804D128002D
:104D3000C0B200F0D5FE0DE0280040B2FFF7F7F852
:104D40001948EDB2142169434058362802D11B207E
:104D50008149C871FFE731BD704770B505000C008F
:104D60001600606900280BD0280000F047FA0121E6
:104D70000D48F6B2142272438018C06802F04BF955
:104D800070BD00B5010000200022100040B21A28BA
:104D900008D2054A40B214234343D258914201D06D
:104DA000401CF3E7C0B200BD80540108F8B507000D
:104DB0000E0000243000FFF7E4FF0500292E09D083
:104DC00012D32B2E0CD00AD32D2E0BD009D32E2E7E
:104DD00009D009E0A749380000F052FF04E003E0E1
:104DE00002E001E000E0FFE70E480068EDB20221BA
:104DF0006943405E002801D0012004000948016891
:104E0000042002F057F8380000F0F8F92100C9B288
:104E1000AD48EDB214226A438018C06802F0FBF876
:104E2000F1BD0000BC360020F8B507000D000026DB
:104E300028001D2812D01F2813D0202814D0212884
:104E400015D0222816D0232808D0252809D02628B6
:104E50000AD027280BD028280CD00DE0292000905C
:104E60000AE02B20009007E02C20009004E02D2089
:104E7000009001E02E2000901D2D04DB232D02DA8E
:104E80000120060005E0232D03DB292D01DA002097
:104E9000060000240098FFF774FF0400F6B2002E0D
:104EA00007D00A20BC49096864B2022262438852D2
:104EB00006E00020B849096864B2022262438852C1
:104EC000B5480168042001F0F5FF380000F096F9BC
:104ED0003100C9B27C4864B2142262438018C068B1
:104EE00002F099F864B2022363439BB202220421C8
:104EF0008C46A948016864B20220604308186146E4
:104F000000F05DFCF1BD70B5040000250026200016
:104F100000F02FFD042005006DB21A2D19D29E4815
:104F200000686DB202216943405E6DB2022169439F
:104F3000615E88420BD0012006006DB202206843FA
:104F4000205A954909686DB202226A4388526D1C45
:104F5000E2E73000C0B270BDF8350020F8B50700B8
:104F60000E000C2530000E280AD00F280BD0102878
:104F70000CD0122804D0132805D0142806D007E03E
:104F80000520050004E00620050001E007200500DB
:104F90000E2E05D00F2E03D0102E01D0112E5BD176
:104FA000112E04D0280001F06AFFB7490860B64806
:104FB00000680221405E002806D1052D00D0062D94
:104FC0006420B24908604CE0112E26D10024042050
:104FD000040064B21A2C0DD23B4864B21421614320
:104FE000401800896C49096864B202226243885201
:104FF000641CEEE768480168042001F05BFF38009C
:10500000FFF7A2F9380000F0F9F800233422042158
:105010006148006800F0D3FB23E09B480068FFF77D
:1050200072FF002811D05C480168042001F042FFA3
:105030003800FFF789F9002334220421564800681C
:1050400000F0BDFB380000F0D9F8052D00D0062D8A
:1050500064209849086004E04F480168280001F086
:1050600029FFF1BDC820944908600020B2490860BA
:105070007047000094120020FEB50024082001F0C3
:10508000FEFE04000820029001948C4D029A0199C2
:10509000280001F075FF092001F0F1FE0400082549
:1050A0000094A64E2A000099300001F069FF0A2002
:1050B00001F0E5FE04000826AE4F32002100380062
:1050C00001F05EFFF7BD000080540108FEB504004A
:1050D000A08905006D080026002069460880A068A8
:1050E00004282DD1002006003000C0B2E18980B232
:1050F00088424FD2022002902000103001906F466B
:10510000029A0199380001F03BFF009800B29A49D9
:10511000EDB214226A4389180422895E88420ADBB0
:105120009548EDB21421694340180621405E00996C
:1051300009B2884201DA00202DE06D1CB61CD3E7CD
:10514000002006003000C0B2E18980B2884221D23E
:10515000F6B2A019007C00281AD0F6B2A019007C83
:10516000202815D0F6B2A019007C302804DBF6B256
:10517000A019007C3A280BDBF6B2A019007C41286C
:1051800004DBF6B2A019007C7B2801DB002002E0E2
:10519000761CD7E70120FEBDBC360020F0B583B0F9
:1051A00005000C002000FFF791FF002825D0A06823
:1051B00004281DD1A08906007608E089019020000E
:1051C000103000906D480068F6B202217143471814
:1051D000019A0099380001F0D3FE3100C9B22800CD
:1051E000FEF7F4FF65480168042001F063FE04E067
:1051F00021001031A06801F05DFEF7BD10B504007C
:105200005F480078002807D000205D490870002220
:105210000521200001F0EDFE10BD10B5032001F0C6
:105220002EFE047802F044FF56490022895E0029D0
:1052300014D0022901D004D324E00021524A116085
:1052400020E0C0B2002805D14F490968491C4E4AE8
:10525000116002E000214C4A116013E0C0B2002846
:105260000CD1E4B2002C03D00021474A116008E0C1
:1052700045490968491C444A116002E00021424A3C
:105280001160FFE710BD0000C0360020B4360020DA
:1052900010B504003D480078002803D03C4802F0D7
:1052A00016F804E03B4A2100394801F0DFFF00F026
:1052B00007F810BDB0360020901B00203C180020DD
:1052C00010B500200400E4B21A2C34D22A48E4B20B
:1052D000142161434058292808D02B280DD02C28B0
:1052E00012D02D2817D02E281CD022E02200D2B2B6
:1052F00029492A4800F024F81BE02200D2B22849AC
:10530000284800F01DF814E02200D2B226492748B0
:1053100000F016F80DE02200D2B22549254800F031
:105320000FF806E02200D2B22349244800F008F822
:10533000FFE7641CC7E710BDC836002048180020EE
:1053400070B504000D0016000C480068F6B202218A
:105350007143405E0A2103F0D7FA012804D10020EE
:10536000A8600120A06003E00020A0600120A860E8
:1053700070BD00005418002080540108BC36002085
:10538000383700201E370020AC3600204C33002078
:10539000103300201C1800207C1200206412002012
:1053A0000C130020F41200209C1300208413002012
:1053B0002C14002014140020BC140020A41400207D
:1053C000704770B5060000240025F6B230000028B2
:1053D00023D0012830D002283ED003284CD0052805
:1053E00072D0062800D19CE0072800D1C6E008282A
:1053F00000D1F0E0092800D115E10A2800D13AE1F6
:105400000B2800D14BE10C2800D120E10D2800D160
:1054100059E10E2800D165E17BE1192000F082F905
:105420000400E4B2002C06D0002302220421D54857
:10543000006800F0C4F96CE11A2000F073F9040070
:10544000E4B2002C07D0022302220421CD480068D8
:10545000801C00F0B4F95CE11B2000F063F904004B
:10546000E4B2002C07D0042302220421C5480068BE
:10547000001D00F0A4F94CE1292000F053F90400CC
:10548000002000F04FF920430400012000F04AF909
:1054900020430400E4B2002C15D0FFF711FF0823CD
:1054A00006220421B7480068083000F088F9B548A2
:1054B00000680821405E00F0D7F905002900C9B254
:1054C000022001F0A8FD24E12B2000F02BF90400BC
:1054D000052000F027F920430400062000F022F9FF
:1054E00020430400072000F01DF920430400E4B22B
:1054F000002C15D0FFF7E4FE0E2308220421A1485A
:1055000000680E3000F05BF99E4800680E21405E96
:1055100000F0AAF905002900C9B2052001F07BFDC1
:10552000F7E02C2000F0FEF80400082000F0FAF864
:1055300020430400092000F0F5F8204304000A206D
:1055400000F0F0F820430400E4B2002C15D0FFF77F
:10555000B7FE1623082204218A480068163000F09E
:105560002EF9884800681621405E00F07DF905009C
:105570002900C9B2062001F04EFDCAE02D2000F03E
:10558000D1F804000B2000F0CDF8204304000C20DB
:1055900000F0C8F8204304000D2000F0C3F82043B9
:1055A0000400E4B2002C15D0FFF78AFE1E23082267
:1055B0000421744800681E3000F001F97148006849
:1055C0001E21405E00F050F905002900C9B20720F5
:1055D00001F021FD9DE02E2000F0A4F8040034200D
:1055E00000F0A0F820430400352000F09BF8204391
:1055F0000400E4B2002C15D0FFF762FE2623062239
:10560000042160480068263000F0D9F85D48006841
:105610002621405E00F028F905002900C9B20120CA
:1056200001F0F9FC75E0362000F07CF80400E4B2EB
:10563000002C0BD02E2302220421524800682E3069
:1056400000F0BDF80121082001F0E5FC61E0172021
:1056500000F068F80400E4B2002C0BD02C230222E6
:105660000421484800682C3000F0A9F801210020EE
:1056700001F0D1FC4DE0042000F054F80400E4B245
:10568000002C0BD03023022204213E480068303029
:1056900000F095F801210C2001F0BDFC39E01C2040
:1056A00000F040F80400E4B2002C0BD032230222B8
:1056B000042134480068323000F081F801210920CB
:1056C00001F0A9FC25E0C149082000F05DF8C049BF
:1056D000092000F059F8BF490A2000F055F8FFF7FB
:1056E000CBFC16E0382000F01DF80400E4B2002CDA
:1056F0000ED006230222042122480068801D00F0FB
:105700005EF8204800680621405E0A2103F0FCF89C
:10571000FFE7E4B2002C04D01A480168042001F02D
:10572000C9FB70BD10B50100002200200200D2B2FA
:105730001B2A25D2A848D2B214235343C058814211
:105740001CD110480068D2B202235343C05EA24B62
:10575000D2B2142454431B1908241B5F98420DD065
:105760009D48D2B214235343C0180089054B1B68CF
:10577000D2B2022454431853012002E0521CD6E74F
:10578000002010BDBC360020F8B505000F00002435
:105790000026280001F073FB04003900200003F00C
:1057A000B9F90600002E09D03900280001F082FB6B
:1057B000002308222900200000F001F8F1BDF3B514
:1057C00081B015001E00ADB2052D18DAF2220021BD
:1057D000142002F021FD04000298A060E581A6815A
:1057E000ADB201980090270010372A0000993800C8
:1057F00001F0C6FB2100052002F0D4FE33E0ADB27B
:10580000112D18DAF2220021202002F005FD0400FB
:105810000298A060E581A681ADB2019800902700B2
:1058200010372A000099380001F0AAFB210005205A
:1058300002F0B8FE17E0F2220021442002F0ECFC56
:1058400004000298A060E581A681ADB201980090A5
:10585000270010372A000099380001F091FB210041
:10586000052002F09FFEF7BD00B5010009B2080057
:10587000002803D00A2803D1012002E0002000E024
:10588000002000BDF8B5002400200400E4B20A2C7A
:1058900055D2002700253926C448E4B204216143CB
:1058A00040580069232808D0252809D026280AD086
:1058B00027280BD028280CD00EE0292006000BE06A
:1058C0002B20060008E02C20060005E02D20060015
:1058D00002E02E200600FFE7392E2ED03000FFF721
:1058E00050FA0700B2480068FFB202217943405ED7
:1058F000FFF7BAFF0500EDB2002D0FD00120AB4934
:10590000E4B20422624389588860A848E4B20421C2
:10591000614340184068002181600EE00020A349E7
:10592000E4B20422624389588860A048E4B20421AA
:1059300061434018406801218160A41CA6E7F1BDC5
:1059400070B504000D0020003C3002F055FC002230
:105950001600ADB2FA2080006843FA21890002F0F7
:10596000D6FF0100320089B220003C3003F0E4F899
:1059700070BD10B500221100C9B21A2925D2C9B2D2
:1059800002224A43825E144BC9B214244C431B19B1
:1059900004241B5F9A420CDB0F4AC9B214234B4309
:1059A000D2180623D25EC9B202234B43C35E9A4289
:1059B00009DA094AC9B214234B43D2181289C9B271
:1059C00002234B43C252491CD6E710BD8C68010824
:1059D00098680108A46801088054010810B52920BE
:1059E000FFF7CFF904000020FFF7CBF904000520F2
:1059F000FFF7C7F904000820FFF7C3F904000B20E4
:105A0000FFF7BFF904003420FFF7BBF904001720AB
:105A1000FFF7B7F904003620FFF7B3F904000420BC
:105A2000FFF7AFF904001C20FFF7ABF9040010BD2D
:105A300000B58C4940B214224243895806290DD042
:105A4000884940B2142242438958092906D0854921
:105A500040B21422424389580C291DD15449096887
:105A600040B202224243895E6222D243914206DB67
:105A700064217D4AD17142217B4A11720CE04C496C
:105A8000096840B202224243895E6222D2439142B7
:105A900002DA6421744A117200BD38B50400F6229E
:105AA00000210C2002F0B8FB0500AC6029000520A5
:105AB00002F078FD31BD00B56C4A1060002905D1B7
:105AC0006A4A5268521C694B5A6001E0674A516049
:105AD00000BD0320654908600020644948607047A4
:105AE000F8B5040032480068E4B202216143405E28
:105AF000002808D108255E4E5B4F2A00310038008F
:105B000001F03EFA0FE02A480068E4B20221614346
:105B1000405E0A2807D10825564E534F2A0031000F
:105B2000380001F02DFAF1BD704710B50400E4B261
:105B3000002C09D050480068C068007BC106C90E1F
:105B40004D4800F03DFD08E04B480068C068007B10
:105B5000C106C90E484800F077FD10BD80B5002091
:105B600001F03CFA01BD80B5012001F037FA01BD1A
:105B700042490870704713B504006846007901284F
:105B800008D101A90B2001F095F901F015F903F0F6
:105B9000ADF809E001F003FF012805D1002003F072
:105BA000DDF9BD4803F082F913BD00004C1100205F
:105BB000BC36002070B505000C006C2200211420BA
:105BC00002F02AFB0600B5606068F060A0683061F2
:105BD00031001F2002F0E6FC70BD38B504000D0056
:105BE000A868012802D0A86803283AD16868401E36
:105BF0002ED00938012814D9283808D0401E0BD0DF
:105C0000401E2ED12900BF48FFF7D4FF29E029000C
:105C1000BD48FFF7CFFF24E02900BC48FFF7CAFFCB
:105C20001FE0BB480068002805D1BA480168200081
:105C300000F0DAF90BE02900B548006800F0F0F94F
:105C4000002804D12900B2480068FFF7B3FF08E03C
:105C5000B1480078002803D12900B048FFF7AAFF17
:105C6000FFE731BD80540108F8350020701B00208B
:105C7000CC180020D81800204036002031370020F2
:105C8000F3B583B00027002504980069FFF779F881
:105C900006000499039800F001F904989949884294
:105CA00008D004989949884204D0049896498842BB
:105CB00000D0EEE00498934988421CD1B5480068B2
:105CC000F6B202217143405E07002D200400E4B2C9
:105CD000002C5FD0BA48E4B2022161434018801E14
:105CE0000021405E3FB2874203DBE4B2601E070042
:105CF00050E0641EEBE70498844988421CD1A54813
:105D00000068F6B202217143405E07002D200400B6
:105D1000E4B2002C3ED0B348E4B202216143401803
:105D2000801E0021405E3FB2874203DBE4B2601E6A
:105D300007002FE0641EEBE704987349884229D1DD
:105D40002920FFF71EF893490968C0B20222504388
:105D5000085E00281CD08F480068F6B2022171430B
:105D6000405E070029200400E4B2002C12D0AA48AB
:105D7000E4B2022161434018801E0021405E3FB220
:105D8000874203DBE4B2601E070003E0641EEBE71A
:105D90002C2007003FB23800042102F0B5FD69460F
:105DA0000871684600903FB23800042102F0ACFD53
:105DB000009841716846007998490978884215D25F
:105DC00096480078060068460079F6B2B04208D2DC
:105DD0002A00B148F6B20421714345581543761E96
:105DE000F1E72900039801F0BCFE1BE08B48007826
:105DF00069460979884215D28848007806006846C5
:105E00000079F6B2864208D22A00A348F6B20421ED
:105E1000714345581543761CF1E714222900039875
:105E200001F08BFE684600797C4908703FB22C2F48
:105E300005D168460079401E7849087029E09648E7
:105E40006946097904225143405805006846407963
:105E5000002805D100222900039801F06EFE18E009
:105E600068464079012805D105222900039801F0F0
:105E700064FE0EE068464079022805D10A22290016
:105E8000039801F05AFE04E00F222900039801F064
:105E900054FE05B0F0BD000000C8FF1F70B506003D
:105EA0000C0000251748844205D01748844202D0D0
:105EB0001648844225D116480068A04221D0E0202F
:105EC000800105002900300001F04BFE0D4884429E
:105ED00003D18020000105000CE00B48844203D16F
:105EE00080204001050005E00848844202D180205E
:105EF0008001050014222900300001F01EFE044834
:105F0000046070BD3412002094120020041500209B
:105F1000C4360020941B0020353700205416002082
:105F2000F8B505000E000024F6B2002E2CD06F4804
:105F30000069FEF726FF6946087016480068694642
:105F4000097802225143405E0A2102F0DDFC07007D
:105F5000C0210902280001F004FE654800780028ED
:105F600017D1012F15D0002F04D120008024240246
:105F7000044303E020008024E401044314222100B0
:105F8000280001F0DAFD04E0C0210902280001F038
:105F9000E8FDF1BDBC36002010B5040055492000D5
:105FA00001F0DFFD002054490870544801682000CA
:105FB000FFF766FE01212000FFF7B2FF10BD0000D1
:105FC0004461010810B504004D49200001F0C9FDED
:105FD00000201249087000204A4908600120464903
:105FE000087010BDA061010838B505000C004248DA
:105FF000007800280FD021002800FFF741FE002084
:106000003D49087000204049086000203F49086071
:1060100000203F49087031BD50620108363700202A
:10602000F8B504000E003B48844232D12920FEF727
:10603000A8FE050038480068EDB202216943405AC5
:106040000700BFB2002F1BD02069FEF79AFE0500A3
:1060500031480068EDB202216943405E2F49EDB23C
:1060600014226A4389180622895E884211DB70680F
:106070000B280ED131002A48FFF79CFD012009E0D2
:1060800070680A2803D131002648FFF793FD0120EC
:1060900000E00020F2BD0000CC100020F8B50600A2
:1060A0000D001B20FEF76DFE04002F00387A00283B
:1060B00006D00A2018490968A4B202226243885215
:1060C000387A0B490870FEF750F9022363439BB2FC
:1060D000022204218C4610480168A4B202206043C9
:1060E00008186146FFF76BFBF1BD00005416002055
:1060F00035370020FFFF000037370020941B0020B9
:10610000FF3F0000C4360020A8360020AC36002037
:106110003337002094120020BC3600208054010840
:10612000641200207C120020F6B583B004001F002A
:106130000A9E0B9D0023049A21002000283000F0C5
:1061400031F80399200002F017FF00200290002090
:1061500001900020009033003A002900C9B22000CD
:1061600002F04AFF05B0F0BD10B50400200002F0B7
:106170006FFF10BD70B504000D002000283002F044
:106180003BF800221600FA2080006843FA218900BB
:1061900002F0BDFB0100320089B22000283002F07D
:1061A000CBFC70BDF8B504000D0017001E00042FD5
:1061B00002DBF6B2022E03DB3321084802F086FD33
:1061C000002060600020A0810020E0813800208055
:1061D000A5600020A070E670F1BD00BFF86801085E
:1061E0000023036041600272002343720023837224
:1061F000C2720273704730B4012100220368001D8F
:10620000002B0BD00468001D0C4202D04D466D1EC1
:1062100064192260241D1B1FF0D0FAE730BC7047C0
:10622000F8B504000D00267F1748F6B2875D042DEF
:1062300010DB1648006885420CDAF6B2002E09D051
:10624000F6B2212E06DA1248F6B204217143405804
:10625000A04203D037210F4802F038FD72B60E4835
:106260000068042169434018FFB20B490968042201
:106270006A438918FFB2C95D084AF6B2925D0A43C3
:10628000C25562B6F1BD00BF7C630108D436002060
:106290009C310020A4690108D0360020F462010876
:1062A00010B502000023002901D00888030022480D
:1062B00000789BB280B2834212D220489BB2042461
:1062C0005C4300590068824208D1002900D00B804D
:1062D0001A489BB204245C43005902E05B1CE6E7C9
:1062E000002010BD30B503000024002A01D0108822
:1062F000040011480078A4B280B284421AD20F4838
:10630000A4B20425654340590068834210D10B486C
:10631000A4B20425654340594068814208D1002A4F
:1063200000D014800548A4B204256543405902E01A
:10633000641CDEE7002030BD8A6A010800650108A0
:1063400070B586B006000C00002534600320029072
:1063500000200500EDB2A068854200D3B9E001211C
:1063600096483268D268EDB204236B43D258520982
:106370005207520F08235A438018406802F074FFF6
:106380000120E168EDB204226A438958090AC9066E
:10639000C90E88400090E068EDB20421694340587E
:1063A000400B4007400F002806D0022875D02CD3A0
:1063B000042801D076D37AE000200190E068EDB2A5
:1063C000042169434058000C4007400F012802D1C6
:1063D0000120049018E0E068EDB2042169434058C0
:1063E000000C4007400F002802D1022004900BE06F
:1063F000E068EDB2042169434058000C4007400FAB
:10640000022801D10020049051E0012001900020D9
:106410000490E068EDB2042169434058C00C400785
:10642000400F002802D1012003900BE0E068EDB29C
:10643000042169434058C00C4007400F012801D196
:1064400000200390E068EDB2042169434058000C3D
:106450004007400F03280AD1E068EDB204216943E8
:10646000405CC106C90E300000F037F814E0E06867
:10647000EDB2042169434058000C4007400F042846
:106480000AD1E068EDB204216943405CC106C90E3F
:10649000300000F059F8FFE709E0032001900020E8
:1064A000049004E00320019000200490FFE7694677
:1064B00042483268D268EDB204236B43D258520985
:1064C0005207520F08235A43805802F039FF6D1CBF
:1064D00040E70120307106B070BDF8B504000F0030
:1064E0000026002500200500EDB220688068854266
:1064F00029D201202168C968EDB204226A43895873
:10650000090AC906C90E884006002068C068EDB2B5
:1065100004216943405CC006C00E874211D131009E
:1065200089B226482268D268EDB204236B43D25860
:1065300052095207520F08235A43805889B2816189
:1065400001E06D1CD0E7F1BDF8B505000E00002498
:1065500000200400E4B22868806884422BD22868B6
:10656000C068E4B204216143405CC006C00E8642AC
:106570001FD101202968C968E4B204226243895806
:10658000090AC906C90E8840694608800022684683
:1065900001880A482B68DB68E4B204276743DB59AB
:1065A0005B095B075B0F08277B43C05802F037FF8E
:1065B00001E0641CCEE7F1BD00000000D0640108DA
:1065C00038B505000C0021002800FFF786FF31BD1B
:1065D000F8B504000F000026F64300250020050052
:1065E000EDB220688068854228D22068C068EDB28C
:1065F00004216943405CC006C00E87421CD10121C2
:106600002068C068EDB204226A438058000AC006C0
:10661000C00E814089B20B482268D268EDB20423D3
:106620006B43D25852095207520F08235A438058DD
:1066300002F0E6FE060001E06D1CD1E7300040B23A
:10664000F2BD0000D064010838B505000C0021003F
:106650002800FFF779FF31BD1CB50400A048046095
:10666000A048E06300210C20FFF71AFE0100E06B58
:1066700002F015FF0B2001900A2000909A4B712226
:106680009A492000FFF750FD13BD10B5040020000B
:10669000FFF76AFD10BD38B505000C00280000F0BA
:1066A00017FB9348A860042032BDF0B583B0040006
:1066B0000E003088012811D05B2800D18FE05E28C1
:1066C00024D05F285BD0602800D1B9E068280CD0C6
:1066D000692812D0712800D1BFE0FDE0FA218900BD
:1066E0002000FFF747FD0120F9E025230022716813
:1066F000200001F0B1FF0120F1E07068A0632000EC
:1067000000F01AFB7A48A0600420E8E03500002081
:1067100046216052A86820647648A968082251433F
:1067200040188088E98988420CD2AB897148A968F1
:10673000082251434018828829001031200000F0BF
:1067400093FA06E0AB89EA8929001031200000F0B5
:106750008BFA686801F095FF010089B2A86800F023
:10676000FDFBA86800F032FB002806D05C480068FA
:10677000002802D00020604908800120AFE00020FE
:10678000462160527068A063B06820642A2200210C
:10679000442001F041FD0500B089A881F089E8811D
:1067A000B068A86034200190002000902F001037BE
:1067B000009A0199380001F08FFFB389F28929000E
:1067C0001031200000F022FA002068600022290029
:1067D000A06BA36B1B68DB68984701207FE0350046
:1067E000222300226968200001F036FF4148A96891
:1067F0000822514340188079C0071FD56868A063FC
:10680000002046216052002048216054A86820647E
:10681000E868002806D1288A44216052AC48A0606C
:1068200004205CE03348216C0822514340188088E2
:1068300044216052A748A060042050E001204EE0AF
:106840003500287A002803D0200000F075FA02E015
:10685000200000F03DFA012041E027480021405E81
:10686000012807DB24480088FA218900401A2249C0
:1068700008800DE020480021405E0021C943884285
:1068800006D0200000F058FA0020C0431A490880C2
:1068900091480021405E002807D08F480088FA21E7
:1068A0008900401A8C4908800EE08B480021405E28
:1068B0000021C943884207D00020C0438649088090
:1068C000BF48A06004200AE0FA218900044800685B
:1068D000FFF750FC012002E0CB48A0600020FEBD85
:1068E000D83600208C350020B03400209766000890
:1068F000C56B0008800E0020A81B0020F8B504001E
:106900000E003088012807D0232847D0242800D142
:106910009DE05B283AD0D6E04420205A3C2818DA83
:106920005D220021442001F077FC05000023442073
:10693000225A29000A31200000F068F94420205A28
:10694000288100222900A06BA36B1B68DB68984795
:1069500017E05C220021442001F05EFC0500206C61
:1069600000F034FA01003C232A000832E06BE76BA8
:10697000BF68B84700222900A06BA36B1B68DB68C7
:106980009847B8485449088001209FE023230322F8
:106990007168200001F060FE012097E03700786800
:1069A000002808D14620205A3C3046216052002061
:1069B0004821605410E04820205C401C482160546D
:1069C0004820205C042807DB0020C043424908809F
:1069D0007B48A060042079E04420205A4621615A77
:1069E000401A3C2814DB5C220021442001F014FCF6
:1069F000050000233C2229000831200000F006F9A0
:106A000000222900A06BA36B1B68DB68984719E084
:106A10005D220021442001F0FFFB05004420205AA4
:106A20004621615A401A288100232A8929000A3107
:106A3000200000F0EBF800222900A06BA36B1B687C
:106A4000DB68984787482449088001203EE03700EA
:106A5000786800282FD04820205C401C48216054D2
:106A60004820205C042807DB0020C0431A49088026
:106A70005348A060042029E05D220021442001F059
:106A8000CBFB05004420205A4621615A401A288138
:106A900000232A8929000A31200000F0B7F80022DB
:106AA0002900A06BA36B1B68DB6898476D480A49F7
:106AB000088001200AE00020C043074908804048C0
:106AC000A060042002E03E48A0600020F2BD00006B
:106AD000DD6A0008FD680008AA1B002070B50400EC
:106AE0000E003088012806D05B2823D05C2829D0EE
:106AF0005D2839D060E0CE48216C082251434058CF
:106B0000002812D100254420205AADB2A8420CD34F
:106B1000206C00F05BF9ADB24119E06BE26BD2681A
:106B200090478020C0002D18EDE74E48C1490880ED
:106B3000012044E0232303227168200001F08CFD32
:106B400001203CE000233C2231000831200000F00D
:106B50008BF8232300227168200001F07DFD41485D
:106B6000B449088001202AE0350000232A89290041
:106B70000A31200000F078F8242300226968200000
:106B800001F06AFD686801F07CFD010089B2206CAB
:106B900000F0E4F9206C00F019F9002804D0FA2183
:106BA00089002000FFF7E6FA0020C043A1490880D1
:106BB000BF48A060042002E0BD48A060002070BD76
:106BC000AB66000838B504000D002888012802D003
:106BD00068280AD013E026230022A16B200001F0D0
:106BE0003BFD0020A06301200CE025230022696802
:106BF000200001F031FDAE48A060042002E0024810
:106C0000A060002032BD00007B6F0008F8B50400D2
:106C10000E0015008648216C082251434058002878
:106C200011D08348216C0822514347584620205AEE
:106C30003F18684600883F18ADB22A00390030007E
:106C400000F09EF90CE0206C00F0C0F8ADB22B0013
:106C500032004621615A4118E06BE76BBF68B847C4
:106C6000F1BD0000B80B0000F2B582B004001500C1
:106C70001E006F48216C082251434058002812D052
:106C80006B48216C0822514347584620205A3F1830
:106C9000B6B2BF19ADB2029800902A000099380030
:106CA00000F06EF90EE0206C00F090F8ADB22B0011
:106CB000029A4621615A4018B6B28119E06BE76B1F
:106CC0007F68B8474620205A401946216052F7BDD8
:106CD000F8B506000024A4B20A2C2CD29848A4B21D
:106CE00008216143455897480821694340580028C6
:106CF0001FD094480821694340188388914808218F
:106D0000694342588E48A4B2082161434018416843
:106D1000F06BF76BBF68B8478A4808216943401891
:106D2000C0888021890101438648082255434019C3
:106D3000C180641CCFE7F1BDF8B505000024E86B05
:106D4000C068002804D08049E86BEA6BD26890479D
:106D5000A4B20A2C2FD27A48A4B208216143401869
:106D60004068002825D07648A4B2082161434658DF
:106D70007348A4B20821614340184068002818D025
:106D80002B48082171434058002812D02848082178
:106D90007143401883882648082171434258684847
:106DA000A4B20821614340184168E86BEF6B7F682B
:106DB000B847641CCCE7F1BD80B564480068002882
:106DC00003D062480068FFF7B7FF01BD10B50100AE
:106DD0000020002292B20A2A10D2594B92B2082403
:106DE00054431B598B4207D1554B92B2082454434C
:106DF0001B195B68180001E0521CEBE710BD10B5D1
:106E000000240C2C12DA2000FFF7E0FF00280BD042
:106E10004C48082161434018C0884D490140494809
:106E2000082262438018C180641CEAE710BD00009C
:106E3000800E0020AA1B00200100424808224A437D
:106E40008018C0888022D201104080B2800BC0B26E
:106E5000704738B5040000252000FFF7EDFF00283B
:106E60000AD03848082161434018C0888021890130
:106E7000084080B2400B05002800C0B232BD70B59A
:106E8000040000252000FFF7A1FF06002000FFF707
:106E9000E0FF002805D02B48082161434058050039
:106EA00002E0002E00D03500280070BD0000000078
:106EB000AB660008F8B504000D002000FFF7BCFF2A
:106EC00000283CD01F48082161434058002836D094
:106ED0001C4808216143405885420DD019480821BB
:106EE000614340188688174808216143475832009B
:106EF0002900380000F044F8124808216143401886
:106F0000C0888021890101430E480822624380180D
:106F1000C1802000FFF75AFF00280CD00B48006802
:106F2000002808D00B480C490880FA21890007483E
:106F30000068FFF71FF90E21200000F00FF8F1BDE7
:106F4000A4620108800E002000BC0108D836002091
:106F5000FFDF000088130000A81B002070B50500AB
:106F60000C00142200210C2001F056F90600756077
:106F70003481300002F0A0FA70BD02000320704797
:106F8000124207D08B0706D00B78491C0370401CB7
:106F9000521EF7D87047830706D00B78491C037040
:106FA000401C521EF9D1704770B4103A03D378C90F
:106FB000103A78C0FBD2530701D318C918C001D5C5
:106FC00008C908C0D20704D30B880380891C801C21
:106FD000002A01D50B78037070BC704710B504000F
:106FE000E4B2002C02D001F001F801E000F0F8FF5B
:106FF00010BDF8B507000D0014004E22002110202E
:1070000001F00AF906003472F5607760310007205C
:1070100001F0C8FAF1BD70B505000C005022002146
:10702000142001F0F9F80600B56034733100072030
:1070300001F0B8FA70BD1CB50400072001901420BF
:107040000090814B712281492000FFF76DF813BD3C
:1070500010B504002000FFF787F810BD7C4981605F
:107060000420704770B504000D00288801280ED058
:1070700002285DD04E2829D04F2822D050280ED08B
:1070800068280AD0692846D071282BD056E0C8213C
:107090002000FFF76FF8012053E0012051E02E009F
:1070A000B068092805D1012000F08BFF052069494F
:1070B00008703369327BB168674800F05CFF0120DB
:1070C0003FE0A868C046C04601203AE0297AE86857
:1070D00000F05DFF1F2300226968200001F0BCFA68
:1070E00001202EE05C4800F0AEFEC8212000FFF732
:1070F00041F85848007800280BD056480078401EC8
:107100005449087053480078002802D1002000F04C
:1071100058FF012015E0262300226968200001F0B5
:107120009BFA4D48C046C0464948A060042008E08C
:107130002000283001F060F8012002E04748A060FC
:10714000002070BD38B504000D002888012808D043
:10715000022832D04E282ED069282AD0712806D095
:1071600031E0C8212000FFF705F801202EE03A4861
:10717000007800280AD02523002239480168200021
:1071800001F06AFA3748A06004201FE0324800F09E
:1071900046FE31484088002805D02F48418820000D
:1071A000FEF7E8FF03E0C8212000FEF7E3FF01201F
:1071B0000CE001200AE0012008E02000283001F066
:1071C0001BF8012002E02548A060002032BD38B540
:1071D00004000D00288801280AD0022829D04E2852
:1071E00025D068280AD069281FD0712814D026E03D
:1071F000C8212000FEF7BEFF012023E016480078DA
:10720000002802D1144800F0E7FD686814490860BE
:107210001548A060042015E00F480078002802D02F
:107220000D4800F010FE01200CE001200AE00120D2
:1072300008E02000283000F0DFFF012002E00748CE
:10724000A060002032BD0000783200205D70000890
:10725000CF7100082A370020803600207B6F00089D
:107260007C360020657000084571000870B5040088
:107270000E001500A56228686062424A31002000B5
:1072800002F076F9040000237122210020002C3046
:10729000FEF788FF0A223C49200002F074F907211A
:1072A0002000FEF7BDFF01203C216054200070BD8E
:1072B00038B5040072220021082000F0ADFF05005F
:1072C0000022290020002368DB68984731BD38B5CB
:1072D000040073220021082000F09EFF0500002218
:1072E000290020002368DB68984731BD0021274A28
:1072F00011700021264A11700121264A11700021C7
:10730000254A1170816A096841627047234981608A
:107310000420704770B504000D002600288801285D
:1073200008D0022827D0072806D071280ED072284E
:107330001FD022E0012023E017480078002803D165
:107340002900300000F02EF8012019E00020124939
:107350000870706A00684069012808D10D480078FB
:10736000002804D001221521300000F056F8012039
:1073700006E0012004E0012002E00948A0600020AE
:1073800070BD00000D730008883400203A370020DB
:107390003B370020AD1B00203C3700201573000850
:1073A0007B6F0008F8B505000F00A86A806804002C
:1073B000002C2AD020687968884224D1A07B00283C
:1073C00009D0A068696A0968884204D0A1892800A8
:1073D00000F03AF803E028002C3000F00DFF6C229A
:1073E0000021142000F018FF0600A068B060786843
:1073F000F060B868306100223100286A2B6A1B688F
:10740000DB68984708E02469D2E778682E2803D023
:1074100028002C3000F0F0FEF1BDF8B504000F009C
:1074200016006C220021142000F0F6FE0500606AB0
:107430000068A860EF602E6100222900206A236A9C
:107440001B68DB689847F1BD38B504000D002000CB
:107450002C3000F0D1FE0022290089B220002C300F
:1074600001F06AFB31BD01001CB504000E20019043
:107470000A200090734B7122C1492000FEF754FE90
:1074800013BD10B504002000FEF76EFE10BD70B5F0
:1074900004000E0000251420BA49EDB202226A430E
:1074A00088526D1C2020B749EDB202226A438852EF
:1074B0006D1C4420B349EDB202226A4388526D1C10
:1074C0000F212000FEF7ACFE07212000FEF7A8FEEA
:1074D00011212000FEF7A4FE10212000FEF7A0FEDF
:1074E00014212000FEF79CFEBD48A060042070BD62
:1074F00070B504000D0026002888012812D002284B
:1075000048D069283CD0712812D0722823D0732823
:1075100026D0742829D075282CD076282CD077280E
:1075200014D03DE00A213000FEF724FE012043E0A4
:10753000AC4802F04EF8002802D0200000F032FAE9
:107540000A213000FEF716FE012035E0200000F091
:1075500029FA012030E0200000F02AFA01202BE077
:10756000200000F067F8012026E0200000F066F817
:10757000012021E001201FE000F05BF801201BE06A
:10758000262300226968200001F066F89448A06074
:10759000042011E02000283000F02EFE01200BE036
:1075A0002888052805DB2900200000F0A2F801202A
:1075B00002E0C548A060002070BD70B504000D0059
:1075C00026002888012806D002282CD0682814D04C
:1075D00071280CD029E0BD4801F0C0FC0020BC4956
:1075E00008600A213000FEF7C5FD012020E00A21D5
:1075F0003000FEF7BFFD01201AE0B44801F0A4FC02
:107600000020B349086080225200CD49754801F03E
:10761000F9FF252300226968200001F01DF8C94800
:10762000A060042004E0012002E0A748A060002040
:1076300070BD70470021A64A116070470121A44A1D
:1076400011607047D834002038B504000D00A91E21
:1076500089B2200002F05CF80100ADB26019401E52
:1076600000780202ADB26019801E0078024392B227
:1076700089B28A4201D1012000E0002032BD80B2EF
:10768000000AC0B27047C0B27047F4B505000C00E4
:107690001F00210089B2280002F03AF806003000ED
:1076A00080B2FFF7ECFF00990870300080B2FFF75E
:1076B000EAFF3870F1BD38B505000C00200080B23B
:1076C000000A28712000E8706B4600AA521CA4B280
:1076D000A11E2800FFF7D9FF68460078A4B2291937
:1076E000891E087068464078A4B22919491E08709E
:1076F00031BDF1B5A2B00E0035002248B1780222AA
:1077000051434018801E04883188C9B2229800F085
:107710003BF80090AA2069460871308801A948709A
:10772000002001A988700098002803D0022809D001
:1077300005D30AE02D1D2D1D241F241F05E02D1D3E
:10774000241F02E02D1D241FFFE7A4B201AF7F1DFF
:10775000220029003800FFF713FC2100C91D89B25F
:1077600001A8FFF7A8FF5A480068012806D1A4B273
:107770002100C91D01A8964AD268904723B0F0BDE8
:107780008F740008801B002010B50200C9B2722956
:1077900017DB00231800C0B2102810DA8D4BC0B2DE
:1077A000082444431B5DC9B28B4206D1894BC0B249
:1077B000082460431818406811E0401CEBE70320E0
:1077C0000DE0C9B2162901DA022008E0106C172872
:1077D00004DB106C2E2801DA012000E0002010BD2F
:1077E000BB750008D0350020F1B584B07A48009010
:1077F0000498016CC9B20498FFF7C6FF0190019884
:10780000002803D0022843D026D35AE00498026C03
:1078100000210498808F401C80B200F0FDFC07001E
:107820003C00241D042604AD320029002000FFF78F
:10783000A7FB241D0498808FC01F0390009802901E
:10784000039A02992000FFF79BFB39000498406CD3
:1078500080B200F0A7FE34E00498026C0021049886
:10786000808FC01E80B200F0D7FC07003C00241DB2
:107870000498808FC61F009D320029002000FFF76A
:107880007FFB39000498406C80B200F08BFE18E05A
:107890000498026C00210498808FC01E80B200F012
:1078A000BBFC07003C00241D0498808FC61F009D70
:1078B000320029002000FFF763FB380001F0FCFDD7
:1078C000FFE705B0F0BD00007B6F00080C3700201B
:1078D0000837002070B50400404801F07AFE05002A
:1078E000072D2BD316480078AA2824D114484078B5
:1078F0002064134880786064114800790002A087F2
:10790000A08F0F49C9780843A087A18F0C48FFF7C3
:107910009BFE002803D02000FFF766FF0BE01A2231
:107920000021082000F078FC060001207060310082
:107930000E2000F037FE294801F03AFE70BD00002D
:10794000E02E0020F174000870B505000C00220044
:107950002900224801F069FE77220021082000F06A
:107960005BFC060031000E2000F01CFE70BD10B55F
:1079700073220021082000F04FFC040021000E209B
:1079800000F010FE10BD10B574220021082000F098
:1079900043FC040021000E2000F004FE10BD10483E
:1079A0000068704710B504002000FFF793FF10BD7A
:1079B00038B504000B4D0A480068012807D128009B
:1079C00000F0B4FE01002800014AD268904731BDA2
:1079D00094110020E45F0108E52E0020D03500203E
:1079E00008370020346901081CB504000820019004
:1079F0000A200090884B352288492000FEF794FB2E
:107A000013BD70B504002500002600200600F6B264
:107A1000102E08DAF6B2042070432818C06C01F06A
:107A20009FFE761CF3E72000FEF79EFB70BD002250
:107A300082637B4A826004207047F8B504000F001F
:107A4000388801280AD0022850D034282DD0352873
:107A500031D0682810D0692816D04DE0200000F001
:107A600092F814226F49200000F067F81E212000D0
:107A7000FEF780FB012042E02523002279682000E8
:107A800000F0EAFD01203AE0200000F0CDF878682F
:107A9000A06326230022A16B200000F0DDFD002062
:107AA000A0635F48A060042029E03900200000F0B6
:107AB000CCF8012023E00025102D11DA04206843C2
:107AC0002018C06C0090009801F0C0FE0600112E36
:107AD00004D032002900200000F055F96D1CEBE7BE
:107AE0001E212000FEF746FB012008E02000283080
:107AF00000F082FB012002E0B148A0600020F2BD4E
:107B000038B504000D002888012804D034280ED090
:107B1000682802D00DE001200EE0252300226968CC
:107B2000200000F099FDA748A060042004E0012097
:107B300002E0A348A060002032BDF8B507000D00A8
:107B4000140034220021182000F066FB0600776044
:107B50000120B060F56074613100082000F022FD62
:107B6000F1BD70B505000C0034220021182000F092
:107B700053FB060075600020B060F46031000820FF
:107B800000F010FD70BDF8B50600002069460880C1
:107B900069460B20FEF784FB0500002D3AD0002437
:107BA000287AE4B284422AD2686800281DD1E868A5
:107BB000E4B20C216143405C07002300DBB2824A3F
:107BC00029001C00814BE4B22C20604318182300CC
:107BD00001F054FF7D48E4B22C2161434018FFB20C
:107BE000042179437118C864FFE72900FFB204201B
:107BF00078433018C06C01F099FD641CD0E76846EA
:107C00000088401C6946088069460B20FEF748FB47
:107C10000500C2E7F1BD0000383400202F7A0008CB
:107C2000017B0008FFFF000038B5040000200500BC
:107C3000EDB2102D08DAEDB2042068432018C06CB4
:107C400001F08EFD6D1CF3E731BDF1B582B00C0083
:107C5000E06800F085F8002804D10121606800F098
:107C60006CF869E0A06800281FD0022839D05FD2E4
:107C70000025102D14DA0126AE40E06830400028BF
:107C80000CD00298042169434018C76C380001F0F9
:107C9000D6FD616938007A68926890476D1CE8E704
:107CA0000021606800F049F846E00025102D13DA45
:107CB0000126AE40E068304000280BD00298042135
:107CC00069434018C76C380001F0B9FD3800796885
:107CD000496888476D1CE9E70021606800F02DF8CD
:107CE0002AE0206900900098112804DB02216068D6
:107CF00000F023F820E00025102D14DA0126AE4014
:107D0000E068304000280CD00298042169434018F4
:107D1000C76C0099380001F030FD1E210298FEF773
:107D200029FA6D1CE8E70021606800F006F803E01E
:107D30000221606800F001F8F7BD70B504000E0084
:107D4000002C0CD019220021082000F065FA050053
:107D50006E600022290020002368DB68984770BD10
:107D600000B501001A4A0020FF2902D101231800A2
:107D700007E0114203D1D3430B40002B01D1012373
:107D80001800C0B200BDF8B507000D0014001222A3
:107D90000021082000F040FA06007068FF218843A7
:107DA000E9B20143716070680A4901402002FF2274
:107DB000120202400A437260300001F07DFBF1BD07
:107DC0007B6F00083B7A000878350020C826002029
:107DD000FFFF0000FF00FFFF70B582B0040000222B
:107DE00003211120FEF77EFA060031008F4801F0D2
:107DF000B1FE002205211120FEF774FA05002900CA
:107E0000A948FEF79DFAA949B74802F073F8002087
:107E10006946087069460320FFF74CF873BD10B53A
:107E20000400207800280CD1AF4802F07FF8608071
:107E30006088002803D101202070012002E000208A
:107E400000E0012010BD10B5040000F005F800F0BE
:107E50004FF800F049F810BD38B593480068C06885
:107E6000007AC106C90E9048FEF7B2FB002801D087
:107E7000012400E00024E4B2002C1FD0B9480078AF
:107E8000002830D199480068022805D29748006838
:107E9000401C9649086026E00020944908600120B3
:107EA000B0490870102200210C2000F0B5F905003F
:107EB00001202872280001F0FFFA14E000208B490D
:107EC0000860A848007800280DD00020A549087057
:107ED000102200210C2000F09FF9050000202872DC
:107EE000280001F0E9FA31BD80B500F0A1F801BD2C
:107EF00070B582B000240320FEF7C1FF0578002092
:107F000069460870784804F079F8040096480088BB
:107F1000401C9549088094480088062808DAE4B295
:107F2000002C27D091480088401C9049088021E00F
:107F30008E480088042802DB0120694608706846E4
:107F40000078EDB285420FD0112200210C2000F004
:107F500063F9060068460078307269460320FEF730
:107F6000A9FF300001F0A8FA00207F490880002016
:107F70007E49088073BDF8B504000E0015001F008F
:107F80002A00D2B231007A4802F0CBF8F1BD38B500
:107F900004000D00EDB2002D09D02A00D2B202215A
:107FA000734802F021F8012000F026F808E02A00CA
:107FB000D2B202216E4802F017F8002000F01CF83F
:107FC00031BD10B50400E4B2002C04D00121684892
:107FD00001F0CAFF03E00021654801F0C5FF10BDB4
:107FE00080B50021624804F037F801BD80B5012159
:107FF0005F4804F031F801BD10B50400E4B2002C74
:1080000009D05C480068C0680078C106C90E5948AC
:10801000FEF7D6FA08E057480068C0680078C10645
:10802000C90E5448FEF710FB10BD000010360020AA
:1080300038B50521504801F0D9FE050000200400A4
:10804000E4B2072C2FD24D48E4B206216143405AD6
:10805000854226DB4948E4B2062161434018408846
:10806000A8421EDBE4B2062C06D10120FFF7C4FFB4
:1080700001204349087013E041480078002805D0EA
:1080800000203F4908700020FFF7B6FF3B48E4B2EC
:108090000621614340180421415E354802F050F941
:1080A00001E0641CCCE731BD18360020E03500202B
:1080B00038B500252B480078002801D1002011E0B8
:1080C00008212D4801F092FE04002E48844202D37C
:1080D0000020050004E02C48844201D20120050064
:1080E0002800C0B232BD0000603500207836002084
:1080F00038B5002400251F480068C0680079C10613
:10810000C90E1C48FEF764FA002801D0012500E0E2
:108110000025EDB2002D13D11C48008804281EDB79
:1081200000201A4908801A480078002817D001203A
:10813000FFF762FF012004000020154908700EE0DF
:1081400012480088401C1149088010480088042803
:1081500005DB04200D49088001200D49087020002E
:10816000C0B232BD2937002010370020123700205E
:10817000603500201836002010360020A0100020A6
:1081800027370020270B0000B70800001437002015
:108190002837002070B506000C00150001222900C8
:1081A000200004F037F870BDF8B504000E00300070
:1081B00004F074F80500002D16D029002000226874
:1081C0001269904772B6A878002809D0E87802288A
:1081D00003DA4721074800F079FDE878401EE8708F
:1081E00062B60120070001E0002007003800C0B29D
:1081F000F2BD0000B068010800B5010072B68A89BE
:10820000002A04D00122100000228A8101E000220D
:10821000100062B6C0B200BDF4B506000C0000202C
:10822000050019480068854209D21848142169439D
:1082300040188089B6B2B04201D26D1CF1E71248F5
:108240000068854203D34621114800F03FFD21001C
:1082500089B20E4814226A43801804F045F80700DA
:10826000002F07D0009838802800401CB8700020EC
:10827000F87006E0A4B2002C03D15621044800F0A7
:1082800025FD3800F2BD00BFCC3600205033002061
:10829000BC69010810B584B00400C046C046162170
:1082A000954804F045F81422FA214900934804F057
:1082B00049F82022C8218900914804F043F844225B
:1082C000FF21C9008F4804F03DF8FEF798FD8E4964
:1082D000AC4800F051FE00200290002001900020E8
:1082E00000900323A84A2021A64800F085FE022220
:1082F000A649A748FDF774FF0020A6490870200092
:1083000080B200F003F900F043FE04B010BD00217C
:10831000A14A1180A149816004207047F8B504008A
:108320000E003088012802D06A2806D02AE0984939
:108330002000FFF739FF012027E03700388900F0DF
:108340007DF838899449088092480078002815D132
:10835000272200211020FFF75FFF05008E480088CC
:10836000A881002229008E488D4B1B68DB68984746
:1083700087492000FFF718FF012006E0A748A0600A
:10838000042002E0A648A0600020F2BD70B5040001
:108390000E003088012806D025282CD026280BD0A6
:1083A0006A2802D046E0012047E0320078492000E8
:1083B000FFF7F0FE012040E076480078401E754946
:1083C000087074480078002813D12722002110205B
:1083D000FFF722FF050070480088A88100222900CD
:1083E0006F486F4B1B68DB6898476C48A06004209F
:1083F00023E0012021E067480078401E65490870AD
:1084000064480078002813D1272200211020FFF7AC
:1084100003FF050060480088A88100222900604809
:108420005F4B1B68DB6898475C48A060042004E051
:10843000012002E07A48A060002070BD38B5040039
:1084400000200500EDB2072D34D2210089B22800AA
:10845000C0B200F041F8002815D14F48018828002B
:10846000C0B200F039F8002822D069218948EDB265
:108470000C226A43805800F01EF846480078401CE1
:108480004449087014E0444801882800C0B200F054
:1084900023F800280CD168217E48EDB20C226A43F3
:1084A000805800F008F83B480078401C39490870B3
:1084B0006D1CC7E731BD70B504000D002A00002116
:1084C0000820FFF7A9FE06002E487060310020004A
:1084D00080B200F067F870BD00B502006D48D2B2FE
:1084E0000C235343C0180089084201D1002000E04A
:1084F000012000BD0000000020320020882900205B
:10850000A8230020B01B00200F83000838B504000A
:108510000025ADB2072D17D25E48ADB20C216943DC
:108520004018008920420DD05A48ADB20C21694351
:10853000401840685749ADB20C226A43891849680F
:10854000096A88476D1CE4E700200500ADB2002DE4
:1085500017D15148ADB20C2169434018008920421F
:108560000DD04D48ADB20C216943401840684A49CE
:10857000ADB20C226A4389184968096A88476D1CA4
:10858000E4E731BD00350020EC3500202036002026
:10859000A03500202C370020163700201D8300084E
:1085A000D00F0020F8B504000E000025ED43A4B262
:1085B0000F2C0EDA07223749200080B200F072F843
:1085C000050034482DB20C2169434018406807006B
:1085D00013E0A4B21F2C10DBA4B2202C0DDA012270
:1085E0002D49200080B200F05DF805002A482DB228
:1085F0000C21694340184068070000223100380010
:108600003B68DB689847F1BD10B5040000222100EB
:108610002248224B1B68DB68984710BD8D830008F9
:108620007B6F000800B500210F22D2B21F2A10DA9A
:108630001B480068D040002809D119480068012370
:1086400093400343164803601000C0B203E0521C7D
:10865000EBE70800C0B200BDF8B507000C0016003B
:10866000002C0DD0009A00210C20FFF7D5FD05004D
:108670006E60AF600022290020002368DB68984705
:10868000F1BD00B5002801D10E2000E0007F80B2CE
:1086900000BD0000FC610108686801080035002089
:1086A0008836002010B503000024E44300200400B5
:1086B00024B292B294420BDA24B20C2060430858E0
:1086C0009BB2984202D1200000B203E0641CEFE7A5
:1086D0000020C04310BD00001206130A1A43130CF9
:1086E0001A4300BF094205D0830705D00270401C21
:1086F000491EF9D170470000130030B41400150072
:10870000103902D310393CC0FCD2490700D30CC049
:1087100000D504C0890002D30280801C002900D546
:10872000027030BC704700000022E5E7010000E065
:10873000491C0A78002AFBD1081A7047F8B50400D2
:108740000D001700286906003079002803D1E96878
:10875000300001F0FFF9E5614548A06145486061DE
:10876000454820610020A060012060602760012052
:108770002073F1BD38B504000020A06100206061C5
:10878000002020610020A0600020606000202060A8
:1087900000202073E069006905002879002802D0D4
:1087A000280001F0E4FA0020E06131BD3348007890
:1087B000704732490870704738B504002500E869F1
:1087C000006901F0F9FA31BDFEB506003500002060
:1087D0000400E4B2E8698068844248D22868E96904
:1087E0004969E4B210226243895888423DD1E86960
:1087F0004069E4B210216143401840680290E86982
:10880000006901900299019801F0F0FA0700E86907
:108810004069E4B21021614340188068694648808D
:10882000E8694069E4B2102161434018C0686946B4
:1088300008803FB20020C043874218D03FB268464C
:10884000408887420EDB684600883FB2B84209DBA9
:10885000022070600A480078002805D00120FFF748
:10886000A8FF01E00120706001E0641CB1E7F7BDE2
:1088700085880008B9870008C987000826370020C6
:1088800031370020F0B583B006003500E869006993
:10889000009000200400E4B2E869806884421AD2A3
:1088A0002868E9694969E4B210226243895888421C
:1088B0000FD1E8694069E4B2102161434018406873
:1088C00001900199009801F091FA07003FB2380039
:1088D00003E0641CDFE70020C043FEBDF44600282F
:1088E00004D4494200F013F8404260474042002956
:1088F00005D45FD000F00BF840424942604749423E
:1089000000F005F84942604703460B43E6D40022D5
:10891000030A8B420BD203098B4219D243088B42C4
:108920002ED2411A00D20146524110467047FF2212
:1089300009023FD012068B4205D3121209028B4264
:1089400001D31212090203098B4219D300E0090A6C
:10895000C3098B4201D3CB01C01A524183098B4218
:1089600001D38B01C01A524143098B4201D34B0101
:10897000C01A524103098B4201D30B01C01A524164
:10898000C3088B4201D3CB00C01A524183088B42EB
:1089900001D38B00C01A524143088B4201D34B00D4
:1089A000C01A5241884200D3401A5241CFD20146E8
:1089B0001046704708B5C046C04608BD9D2102005C
:1089C00008D5F446524200F005F80122D2071043C0
:1089D000604700000AD002D4491E9218FCD5C90590
:1089E000100A1206524100D3012A4841704730B4A0
:1089F00005004D400122D20715404B180418240EE3
:108A000028D01B0E2FD0FF2C34D0FF2B37D0E41AE8
:108A1000000209021043114343084808D10D1B1AF4
:108A200002D2641EDB181B18DB18834200D31B1A0A
:108A30004941F9D37F3426DDFE2C08DAE4054808E5
:108A4000C907194391416041284330BC7047FF205A
:108A5000C005F9E728001B0E03D0FF2BF5D1490212
:108A6000F3D0D043F1E7FF2C01D14002F9D1FF2030
:108A7000C005E9E74002F4D1FF2BF8D1F1E7280067
:108A80004902E2D0EDE70B0200202442DCD15B1268
:108A90009B1CD9D9D805D7E7012212060118CA4272
:108AA0000AD28A420DD83822120609098918C20F43
:108AB000D20711434007704700D049080909014314
:108AC00001E0C10FC90700207047AA0008B410B523
:108AD00085B007AB039300240294002902D10094CF
